{
  "transactions": [
    {
      "hash": "0x9c3fd8851875c487e4f28daa75ad15bb2bb0c09b9205a1087422b1ad42f3e227",
      "transactionType": "CALL",
      "contractName": null,
      "contractAddress": "0xd22302849a87d5b00f13e504581bc086300da080",
      "function": "grantRole(bytes32,address)",
      "arguments": [
        "0xa49807205ce4d355092ef5a8a18f56e8913cf4a201fbe287825b095693c21775",
        "0xFcb755f48cAdb0b92E8c1315150Ce2Ac91C9C336"
      ],
      "transaction": {
        "from": "0x87350ccfe163cbd6172c6ff3d39dbc93b01f9f46",
        "to": "0xd22302849a87d5b00f13e504581bc086300da080",
        "gas": "0x2602f",
        "value": "0x0",
        "input": "0x2f2ff15da49807205ce4d355092ef5a8a18f56e8913cf4a201fbe287825b095693c21775000000000000000000000000fcb755f48cadb0b92e8c1315150ce2ac91c9c336",
        "nonce": "0x1c",
        "chainId": "0x530"
      },
      "additionalContracts": [],
      "isFixedGasLimit": false
    },
    {
      "hash": "0x51a8c7207ec1d9b68e46f4829957edc4f90aef5b80da89ecaf5d940b3fc693e7",
      "transactionType": "CALL",
      "contractName": null,
      "contractAddress": "0xd22302849a87d5b00f13e504581bc086300da080",
      "function": "grantRole(bytes32,address)",
      "arguments": [
        "0x0000000000000000000000000000000000000000000000000000000000000000",
        "0xFcb755f48cAdb0b92E8c1315150Ce2Ac91C9C336"
      ],
      "transaction": {
        "from": "0x87350ccfe163cbd6172c6ff3d39dbc93b01f9f46",
        "to": "0xd22302849a87d5b00f13e504581bc086300da080",
        "gas": "0x25dfe",
        "value": "0x0",
        "input": "0x2f2ff15d0000000000000000000000000000000000000000000000000000000000000000000000000000000000000000fcb755f48cadb0b92e8c1315150ce2ac91c9c336",
        "nonce": "0x1d",
        "chainId": "0x530"
      },
      "additionalContracts": [],
      "isFixedGasLimit": false
    }
  ],
  "receipts": [
    {
      "status": "0x1",
      "cumulativeGasUsed": "0x19fdb",
      "logs": [
        {
          "address": "0xd22302849a87d5b00f13e504581bc086300da080",
          "topics": [
            "0x2f8788117e7eff1d82e926ec794901d17c78024a50270940304540a733656f0d",
            "0xa49807205ce4d355092ef5a8a18f56e8913cf4a201fbe287825b095693c21775",
            "0x000000000000000000000000fcb755f48cadb0b92e8c1315150ce2ac91c9c336",
            "0x00000000000000000000000087350ccfe163cbd6172c6ff3d39dbc93b01f9f46"
          ],
          "data": "0x",
          "blockHash": "0x0bb5897996c6ffcf586d744fa12a5b82f22950b12c64c8f090eae7f7554ca274",
          "blockNumber": "0xcfab4c7",
          "transactionHash": "0x9c3fd8851875c487e4f28daa75ad15bb2bb0c09b9205a1087422b1ad42f3e227",
          "transactionIndex": "0x0",
          "logIndex": "0x0",
          "removed": false
        }
      ],
      "logsBloom": "0x00000004000000000000000000000000000000000000000000000000000000010000000000000400000000000000000000000000000000000000000000000000000000000000010000000000000000000000000020000000000000000000000000000100000001000000000000000000000000000000000800000000000000000000000000000000000000000000004000000080000000000080000000000000000000000000000000000000000000000000000800000000001000000000000000000000000000000000000000000000000000000000000100000000000000000000000000000000000000000000000000000000080000000000000000000000",
      "type": "0x2",
      "transactionHash": "0x9c3fd8851875c487e4f28daa75ad15bb2bb0c09b9205a1087422b1ad42f3e227",
      "transactionIndex": "0x0",
      "blockHash": "0x0bb5897996c6ffcf586d744fa12a5b82f22950b12c64c8f090eae7f7554ca274",
      "blockNumber": "0xcfab4c7",
      "gasUsed": "0x19fdb",
      "effectiveGasPrice": "0x2540be401",
      "from": "0x87350ccfe163cbd6172c6ff3d39dbc93b01f9f46",
      "to": "0xd22302849a87d5b00f13e504581bc086300da080",
      "contractAddress": null
    },
    {
      "status": "0x1",
      "cumulativeGasUsed": "0x19e5b",
      "logs": [
        {
          "address": "0xd22302849a87d5b00f13e504581bc086300da080",
          "topics": [
            "0x2f8788117e7eff1d82e926ec794901d17c78024a50270940304540a733656f0d",
            "0x0000000000000000000000000000000000000000000000000000000000000000",
            "0x000000000000000000000000fcb755f48cadb0b92e8c1315150ce2ac91c9c336",
            "0x00000000000000000000000087350ccfe163cbd6172c6ff3d39dbc93b01f9f46"
          ],
          "data": "0x",
          "blockHash": "0xe155ccaa7e8a974a50c2280acfa512c0ece7b9e054be7de6939e3c6d32f5ea81",
          "blockNumber": "0xcfab4c8",
          "transactionHash": "0x51a8c7207ec1d9b68e46f4829957edc4f90aef5b80da89ecaf5d940b3fc693e7",
          "transactionIndex": "0x0",
          "logIndex": "0x0",
          "removed": false
        }
      ],
      "logsBloom": "0x00000004000000000000000000000000000000000000000000000000000000010000000000000400000000000000000000000000000000000000000000000000000000000000010000000000000000000000000000000000000000000000000000000100020001000000000000000800000000000000000000000000000000000000000000000000000000000000000000000080000000000080000000000000000000000000000000000000000000000000000800000000001000000000000000000000000000000000000000000000000000000000000100000000000020000000000000000000000000000000000000000000080000000000000000000000",
      "type": "0x2",
      "transactionHash": "0x51a8c7207ec1d9b68e46f4829957edc4f90aef5b80da89ecaf5d940b3fc693e7",
      "transactionIndex": "0x0",
      "blockHash": "0xe155ccaa7e8a974a50c2280acfa512c0ece7b9e054be7de6939e3c6d32f5ea81",
      "blockNumber": "0xcfab4c8",
      "gasUsed": "0x19e5b",
      "effectiveGasPrice": "0x2540be401",
      "from": "0x87350ccfe163cbd6172c6ff3d39dbc93b01f9f46",
      "to": "0xd22302849a87d5b00f13e504581bc086300da080",
      "contractAddress": null
    }
  ],
  "libraries": [],
  "pending": [],
  "returns": {},
  "timestamp": 1765475665973,
  "chain": 1328,
  "commit": "8b570dad"
}