{
  "transactions": [
    {
      "hash": "0xe5cb31fe0bc78e6ecc3a185562c70e7bde3bc0bc09502b6d673d9392bacf0c20",
      "transactionType": "CALL",
      "contractName": null,
      "contractAddress": "0xa25921858fa5ee8177faaff1d6522730e4649648",
      "function": "grantRole(bytes32,address)",
      "arguments": [
        "0xa49807205ce4d355092ef5a8a18f56e8913cf4a201fbe287825b095693c21775",
        "0xFcb755f48cAdb0b92E8c1315150Ce2Ac91C9C336"
      ],
      "transaction": {
        "from": "0x87350ccfe163cbd6172c6ff3d39dbc93b01f9f46",
        "to": "0xa25921858fa5ee8177faaff1d6522730e4649648",
        "gas": "0x6bd7e90",
        "value": "0x0",
        "input": "0x2f2ff15da49807205ce4d355092ef5a8a18f56e8913cf4a201fbe287825b095693c21775000000000000000000000000fcb755f48cadb0b92e8c1315150ce2ac91c9c336",
        "nonce": "0x5f",
        "chainId": "0x13a"
      },
      "additionalContracts": [],
      "isFixedGasLimit": false
    },
    {
      "hash": "0x376729ed45b841d170f0c359bdbb1370051b2b54268ced42e3133008370dc905",
      "transactionType": "CALL",
      "contractName": null,
      "contractAddress": "0xa25921858fa5ee8177faaff1d6522730e4649648",
      "function": "grantRole(bytes32,address)",
      "arguments": [
        "0x0000000000000000000000000000000000000000000000000000000000000000",
        "0xFcb755f48cAdb0b92E8c1315150Ce2Ac91C9C336"
      ],
      "transaction": {
        "from": "0x87350ccfe163cbd6172c6ff3d39dbc93b01f9f46",
        "to": "0xa25921858fa5ee8177faaff1d6522730e4649648",
        "gas": "0x6b744d0",
        "value": "0x0",
        "input": "0x2f2ff15d0000000000000000000000000000000000000000000000000000000000000000000000000000000000000000fcb755f48cadb0b92e8c1315150ce2ac91c9c336",
        "nonce": "0x60",
        "chainId": "0x13a"
      },
      "additionalContracts": [],
      "isFixedGasLimit": false
    }
  ],
  "receipts": [
    {
      "status": "0x1",
      "cumulativeGasUsed": "0x0",
      "logs": [
        {
          "address": "0xa25921858fa5ee8177faaff1d6522730e4649648",
          "topics": [
            "0x2f8788117e7eff1d82e926ec794901d17c78024a50270940304540a733656f0d",
            "0xa49807205ce4d355092ef5a8a18f56e8913cf4a201fbe287825b095693c21775",
            "0x000000000000000000000000fcb755f48cadb0b92e8c1315150ce2ac91c9c336",
            "0x00000000000000000000000087350ccfe163cbd6172c6ff3d39dbc93b01f9f46"
          ],
          "data": "0x",
          "blockHash": "0x761ea8e9c5f5db03b3afa5ffa1ad7122db6681f8fa4c695d03471052376f8968",
          "blockNumber": "0x550638",
          "transactionHash": "0xe5cb31fe0bc78e6ecc3a185562c70e7bde3bc0bc09502b6d673d9392bacf0c20",
          "transactionIndex": "0x1e",
          "logIndex": "0xa7",
          "removed": false
        }
      ],
      "logsBloom": "0x00000004000000000000000000000000000000000000000000000000000000000000000000000400000000000000000000000000000000000000000000000000000000000000010000000000800000000000000020000000000000000000000000000100000001000000000000000000000000000000000800000000000000000100000000000000000000000000004000000080000000000080000000000000000000000000000000000000000000000000000000000000001000000000000000008000000000000000000000000000000000000000000100000000000000000000000000000000000000000000000000000000000000000000000000000000",
      "type": "0x2",
      "transactionHash": "0xe5cb31fe0bc78e6ecc3a185562c70e7bde3bc0bc09502b6d673d9392bacf0c20",
      "transactionIndex": "0x1e",
      "blockHash": "0x761ea8e9c5f5db03b3afa5ffa1ad7122db6681f8fa4c695d03471052376f8968",
      "blockNumber": "0x550638",
      "gasUsed": "0x14aa16a",
      "effectiveGasPrice": "0x7f763",
      "from": "0x87350ccfe163cbd6172c6ff3d39dbc93b01f9f46",
      "to": "0xa25921858fa5ee8177faaff1d6522730e4649648",
      "contractAddress": null,
      "root": "0x0000000000000000000000000000000000000000000000000000000000000000"
    },
    {
      "status": "0x1",
      "cumulativeGasUsed": "0x0",
      "logs": [
        {
          "address": "0xa25921858fa5ee8177faaff1d6522730e4649648",
          "topics": [
            "0x2f8788117e7eff1d82e926ec794901d17c78024a50270940304540a733656f0d",
            "0x0000000000000000000000000000000000000000000000000000000000000000",
            "0x000000000000000000000000fcb755f48cadb0b92e8c1315150ce2ac91c9c336",
            "0x00000000000000000000000087350ccfe163cbd6172c6ff3d39dbc93b01f9f46"
          ],
          "data": "0x",
          "blockHash": "0x761ea8e9c5f5db03b3afa5ffa1ad7122db6681f8fa4c695d03471052376f8968",
          "blockNumber": "0x550638",
          "transactionHash": "0x376729ed45b841d170f0c359bdbb1370051b2b54268ced42e3133008370dc905",
          "transactionIndex": "0x1f",
          "logIndex": "0xa8",
          "removed": false
        }
      ],
      "logsBloom": "0x00000004000000000000000000000000000000000000000000000000000000000000000000000400000000000000000000000000000000000000000000000000000000000000010000000000800000000000000000000000000000000000000000000100020001000000000000000800000000000000000000000000000000000100000000000000000000000000000000000080000000000080000000000000000000000000000000000000000000000000000000000000001000000000000000008000000000000000000000000000000000000000000100000000000020000000000000000000000000000000000000000000000000000000000000000000",
      "type": "0x2",
      "transactionHash": "0x376729ed45b841d170f0c359bdbb1370051b2b54268ced42e3133008370dc905",
      "transactionIndex": "0x1f",
      "blockHash": "0x761ea8e9c5f5db03b3afa5ffa1ad7122db6681f8fa4c695d03471052376f8968",
      "blockNumber": "0x550638",
      "gasUsed": "0x12e9dcf",
      "effectiveGasPrice": "0x8ac24",
      "from": "0x87350ccfe163cbd6172c6ff3d39dbc93b01f9f46",
      "to": "0xa25921858fa5ee8177faaff1d6522730e4649648",
      "contractAddress": null,
      "root": "0x0000000000000000000000000000000000000000000000000000000000000000"
    }
  ],
  "libraries": [],
  "pending": [],
  "returns": {},
  "timestamp": 1765470991827,
  "chain": 314,
  "commit": "8b570dad"
}