{
  "transactions": [
    {
      "hash": "0xa4e7a5907fe59949263913044ed06489d643ab24574de15fd45928cb72c2c3eb",
      "transactionType": "CALL",
      "contractName": null,
      "contractAddress": "0x34092470cc59a097d770523931e3bc179370b44b",
      "function": "grantRole(bytes32,address)",
      "arguments": [
        "0xa49807205ce4d355092ef5a8a18f56e8913cf4a201fbe287825b095693c21775",
        "0xFcb755f48cAdb0b92E8c1315150Ce2Ac91C9C336"
      ],
      "transaction": {
        "from": "0x87350ccfe163cbd6172c6ff3d39dbc93b01f9f46",
        "to": "0x34092470cc59a097d770523931e3bc179370b44b",
        "gas": "0x7237bf0",
        "value": "0x0",
        "input": "0x2f2ff15da49807205ce4d355092ef5a8a18f56e8913cf4a201fbe287825b095693c21775000000000000000000000000fcb755f48cadb0b92e8c1315150ce2ac91c9c336",
        "nonce": "0x63",
        "chainId": "0x13a"
      },
      "additionalContracts": [],
      "isFixedGasLimit": false
    },
    {
      "hash": "0x78d42f41fdcb9c32b620f574e332bf8bb5342ccd8fce3b1d575d5bde43517ee6",
      "transactionType": "CALL",
      "contractName": null,
      "contractAddress": "0x34092470cc59a097d770523931e3bc179370b44b",
      "function": "grantRole(bytes32,address)",
      "arguments": [
        "0x0000000000000000000000000000000000000000000000000000000000000000",
        "0xFcb755f48cAdb0b92E8c1315150Ce2Ac91C9C336"
      ],
      "transaction": {
        "from": "0x87350ccfe163cbd6172c6ff3d39dbc93b01f9f46",
        "to": "0x34092470cc59a097d770523931e3bc179370b44b",
        "gas": "0x71ce470",
        "value": "0x0",
        "input": "0x2f2ff15d0000000000000000000000000000000000000000000000000000000000000000000000000000000000000000fcb755f48cadb0b92e8c1315150ce2ac91c9c336",
        "nonce": "0x64",
        "chainId": "0x13a"
      },
      "additionalContracts": [],
      "isFixedGasLimit": false
    }
  ],
  "receipts": [
    {
      "status": "0x1",
      "cumulativeGasUsed": "0x0",
      "logs": [
        {
          "address": "0x34092470cc59a097d770523931e3bc179370b44b",
          "topics": [
            "0x2f8788117e7eff1d82e926ec794901d17c78024a50270940304540a733656f0d",
            "0xa49807205ce4d355092ef5a8a18f56e8913cf4a201fbe287825b095693c21775",
            "0x000000000000000000000000fcb755f48cadb0b92e8c1315150ce2ac91c9c336",
            "0x00000000000000000000000087350ccfe163cbd6172c6ff3d39dbc93b01f9f46"
          ],
          "data": "0x",
          "blockHash": "0x989d75fba57b853302a2fc9ef7222306f12bdf8ca6fd5bb3ee1ff568348b68ed",
          "blockNumber": "0x5506b0",
          "transactionHash": "0xa4e7a5907fe59949263913044ed06489d643ab24574de15fd45928cb72c2c3eb",
          "transactionIndex": "0x26",
          "logIndex": "0x8c",
          "removed": false
        }
      ],
      "logsBloom": "0x00000004000000000000002000200000000000000000000000000100000000000000000000000400000000000000000000000000000000000000000000000000000000000000010000000000000000000000000020000000000000000000000000000100000001000000000000000000000000000000000800000000000000000000000000000000000000000000004000000080000000000080000000000000000000000000000000000000000000000000000000000000001000000000000000000000000000000000000000000000000000000000000100000000000000000000000000000000000000000000000000000000000000000000000000000000",
      "type": "0x2",
      "transactionHash": "0xa4e7a5907fe59949263913044ed06489d643ab24574de15fd45928cb72c2c3eb",
      "transactionIndex": "0x26",
      "blockHash": "0x989d75fba57b853302a2fc9ef7222306f12bdf8ca6fd5bb3ee1ff568348b68ed",
      "blockNumber": "0x5506b0",
      "gasUsed": "0x1cc93b2",
      "effectiveGasPrice": "0x34d94",
      "from": "0x87350ccfe163cbd6172c6ff3d39dbc93b01f9f46",
      "to": "0x34092470cc59a097d770523931e3bc179370b44b",
      "contractAddress": null,
      "root": "0x0000000000000000000000000000000000000000000000000000000000000000"
    },
    {
      "status": "0x1",
      "cumulativeGasUsed": "0x0",
      "logs": [
        {
          "address": "0x34092470cc59a097d770523931e3bc179370b44b",
          "topics": [
            "0x2f8788117e7eff1d82e926ec794901d17c78024a50270940304540a733656f0d",
            "0x0000000000000000000000000000000000000000000000000000000000000000",
            "0x000000000000000000000000fcb755f48cadb0b92e8c1315150ce2ac91c9c336",
            "0x00000000000000000000000087350ccfe163cbd6172c6ff3d39dbc93b01f9f46"
          ],
          "data": "0x",
          "blockHash": "0x1d7709840b18f923f4643059309924f7b973bea6692e1a03cb685ae6e5830374",
          "blockNumber": "0x5506b1",
          "transactionHash": "0x78d42f41fdcb9c32b620f574e332bf8bb5342ccd8fce3b1d575d5bde43517ee6",
          "transactionIndex": "0x19",
          "logIndex": "0x50",
          "removed": false
        }
      ],
      "logsBloom": "0x00000004000000000000002000200000000000000000000000000100000000000000000000000400000000000000000000000000000000000000000000000000000000000000010000000000000000000000000000000000000000000000000000000100020001000000000000000800000000000000000000000000000000000000000000000000000000000000000000000080000000000080000000000000000000000000000000000000000000000000000000000000001000000000000000000000000000000000000000000000000000000000000100000000000020000000000000000000000000000000000000000000000000000000000000000000",
      "type": "0x2",
      "transactionHash": "0x78d42f41fdcb9c32b620f574e332bf8bb5342ccd8fce3b1d575d5bde43517ee6",
      "transactionIndex": "0x19",
      "blockHash": "0x1d7709840b18f923f4643059309924f7b973bea6692e1a03cb685ae6e5830374",
      "blockNumber": "0x5506b1",
      "gasUsed": "0x18dd3d8",
      "effectiveGasPrice": "0x3cf6b",
      "from": "0x87350ccfe163cbd6172c6ff3d39dbc93b01f9f46",
      "to": "0x34092470cc59a097d770523931e3bc179370b44b",
      "contractAddress": null,
      "root": "0x0000000000000000000000000000000000000000000000000000000000000000"
    }
  ],
  "libraries": [],
  "pending": [],
  "returns": {},
  "timestamp": 1765474620373,
  "chain": 314,
  "commit": "8b570dad"
}