{
  "transactions": [
    {
      "hash": "0x5ad36a6fdfca3c09db9f297e9d0b78e0cd14df944e42a48595f393b1fde8740e",
      "transactionType": "CALL",
      "contractName": null,
      "contractAddress": "0xdff3f80a0ab7b91f15acaec16d0d4d1fce07b0dd",
      "function": "permitDestinationChainId(uint256)",
      "arguments": [
        "222222"
      ],
      "transaction": {
        "from": "0xa0ee7a142d267c1f36714e4a8f75612f20a79720",
        "to": "0xdff3f80a0ab7b91f15acaec16d0d4d1fce07b0dd",
        "gas": "0xfd38",
        "value": "0x0",
        "input": "0x44d1da8c000000000000000000000000000000000000000000000000000000000003640e",
        "nonce": "0x3",
        "chainId": "0x1b207"
      },
      "additionalContracts": [],
      "isFixedGasLimit": false
    },
    {
      "hash": "0x901fe0e76594f5b264992252202fda03670124cfb9715246f35ed035586f72fb",
      "transactionType": "CALL",
      "contractName": null,
      "contractAddress": "0xdff3f80a0ab7b91f15acaec16d0d4d1fce07b0dd",
      "function": "setTokenMapping(uint256,address,address)",
      "arguments": [
        "222222",
        "0xc0315C089CfFB0618bEdFdFE9D0457a2B4168140",
        "0xc0315C089CfFB0618bEdFdFE9D0457a2B4168140"
      ],
      "transaction": {
        "from": "0xa0ee7a142d267c1f36714e4a8f75612f20a79720",
        "to": "0xdff3f80a0ab7b91f15acaec16d0d4d1fce07b0dd",
        "gas": "0x11184",
        "value": "0x0",
        "input": "0x9695ec21000000000000000000000000000000000000000000000000000000000003640e000000000000000000000000c0315c089cffb0618bedfdfe9d0457a2b4168140000000000000000000000000c0315c089cffb0618bedfdfe9d0457a2b4168140",
        "nonce": "0x4",
        "chainId": "0x1b207"
      },
      "additionalContracts": [],
      "isFixedGasLimit": false
    }
  ],
  "receipts": [
    {
      "status": "0x1",
      "cumulativeGasUsed": "0xb754",
      "logs": [
        {
          "address": "0xdff3f80a0ab7b91f15acaec16d0d4d1fce07b0dd",
          "topics": [
            "0x047b2668ff544a8bbf30bd7ba3e75486baa01a04badf5386b6c3bc9a7da4d663"
          ],
          "data": "0x000000000000000000000000000000000000000000000000000000000003640e",
          "blockHash": "0xcfdaa5b4f85ff0a9c9a414703a14d24b166924ce620f752b5adc9cbfdae7e132",
          "blockNumber": "0x3",
          "blockTimestamp": "0x6888a063",
          "transactionHash": "0x5ad36a6fdfca3c09db9f297e9d0b78e0cd14df944e42a48595f393b1fde8740e",
          "transactionIndex": "0x0",
          "logIndex": "0x0",
          "removed": false
        }
      ],
      "logsBloom": "0x00000000000000000000000000000000000000000000000000000000000000000000000000000000000000000000000000000000000010000800000000000000000000000000000000000000000000000000000000000000000000000000000000000000000000000000000000000000000000000000000000000000000000000000000000000000000000000000000000000000000000000040000000000000000000000000000000000000000080000000000000000000000000000000000000000000000000000000000000000000000000000000000000000000000000000000000000000000000000000000000000000400000000000100000000000000",
      "type": "0x2",
      "transactionHash": "0x5ad36a6fdfca3c09db9f297e9d0b78e0cd14df944e42a48595f393b1fde8740e",
      "transactionIndex": "0x0",
      "blockHash": "0xcfdaa5b4f85ff0a9c9a414703a14d24b166924ce620f752b5adc9cbfdae7e132",
      "blockNumber": "0x3",
      "gasUsed": "0xb754",
      "effectiveGasPrice": "0x30ce06ba",
      "blobGasPrice": "0x1",
      "from": "0xa0ee7a142d267c1f36714e4a8f75612f20a79720",
      "to": "0xdff3f80a0ab7b91f15acaec16d0d4d1fce07b0dd",
      "contractAddress": null
    },
    {
      "status": "0x1",
      "cumulativeGasUsed": "0xc606",
      "logs": [
        {
          "address": "0xdff3f80a0ab7b91f15acaec16d0d4d1fce07b0dd",
          "topics": [
            "0xa9f869d70b1db119cda65f920b318209f1b3da0c65e25245575959bc7d112820"
          ],
          "data": "0x000000000000000000000000000000000000000000000000000000000003640e000000000000000000000000c0315c089cffb0618bedfdfe9d0457a2b4168140000000000000000000000000c0315c089cffb0618bedfdfe9d0457a2b4168140",
          "blockHash": "0x289caf7ecc6e4942ee7edf1b2a75a1a2fb951af01d7acecfc2c5d2ee21ff3c3e",
          "blockNumber": "0x4",
          "blockTimestamp": "0x6888a063",
          "transactionHash": "0x901fe0e76594f5b264992252202fda03670124cfb9715246f35ed035586f72fb",
          "transactionIndex": "0x0",
          "logIndex": "0x0",
          "removed": false
        }
      ],
      "logsBloom": "0x00000000000000000000000000000000000000001000000000000000000000000000000000000000000000000000000200000000000000000000000000000000000000000000000000000000000000000000000000000000000000000000000000000000000000000000000000000000000000000000000000000000000000000000000000000000000000000000000000000000000000000000000000000000000000000000000000000000000080000000000000000000000000000000000000000000000000000000000000000000000000000000000000000000000000000000000000000000008000000000000000000400000000000100000000000000",
      "type": "0x2",
      "transactionHash": "0x901fe0e76594f5b264992252202fda03670124cfb9715246f35ed035586f72fb",
      "transactionIndex": "0x0",
      "blockHash": "0x289caf7ecc6e4942ee7edf1b2a75a1a2fb951af01d7acecfc2c5d2ee21ff3c3e",
      "blockNumber": "0x4",
      "gasUsed": "0xc606",
      "effectiveGasPrice": "0x2ab928cf",
      "blobGasPrice": "0x1",
      "from": "0xa0ee7a142d267c1f36714e4a8f75612f20a79720",
      "to": "0xdff3f80a0ab7b91f15acaec16d0d4d1fce07b0dd",
      "contractAddress": null
    }
  ],
  "libraries": [],
  "pending": [],
  "returns": {},
  "timestamp": 1753784419,
  "chain": 111111,
  "commit": "8a4be131"
}