{
  "transactions": [
    {
      "hash": "0x10802a8229b5e032de3bf92ceabbb7a09719146993c722a5de55da032eed8153",
      "transactionType": "CALL",
      "contractName": null,
      "contractAddress": "0xdff3f80a0ab7b91f15acaec16d0d4d1fce07b0dd",
      "function": "permitDestinationChainId(uint256)",
      "arguments": [
        "222222"
      ],
      "transaction": {
        "from": "0xa0ee7a142d267c1f36714e4a8f75612f20a79720",
        "to": "0xdff3f80a0ab7b91f15acaec16d0d4d1fce07b0dd",
        "gas": "0xfd38",
        "value": "0x0",
        "input": "0x44d1da8c000000000000000000000000000000000000000000000000000000000003640e",
        "nonce": "0x3",
        "chainId": "0x1b207"
      },
      "additionalContracts": [],
      "isFixedGasLimit": false
    },
    {
      "hash": "0xf29818b9f652a737beb1627b414bcc7bcfcc62418b1f5047beea24186a4f7fe1",
      "transactionType": "CALL",
      "contractName": null,
      "contractAddress": "0xdff3f80a0ab7b91f15acaec16d0d4d1fce07b0dd",
      "function": "setTokenMapping(uint256,address,address)",
      "arguments": [
        "222222",
        "0xc0315C089CfFB0618bEdFdFE9D0457a2B4168140",
        "0xc0315C089CfFB0618bEdFdFE9D0457a2B4168140"
      ],
      "transaction": {
        "from": "0xa0ee7a142d267c1f36714e4a8f75612f20a79720",
        "to": "0xdff3f80a0ab7b91f15acaec16d0d4d1fce07b0dd",
        "gas": "0x11184",
        "value": "0x0",
        "input": "0x9695ec21000000000000000000000000000000000000000000000000000000000003640e000000000000000000000000c0315c089cffb0618bedfdfe9d0457a2b4168140000000000000000000000000c0315c089cffb0618bedfdfe9d0457a2b4168140",
        "nonce": "0x4",
        "chainId": "0x1b207"
      },
      "additionalContracts": [],
      "isFixedGasLimit": false
    }
  ],
  "receipts": [
    {
      "status": "0x1",
      "cumulativeGasUsed": "0xb754",
      "logs": [
        {
          "address": "0xdff3f80a0ab7b91f15acaec16d0d4d1fce07b0dd",
          "topics": [
            "0x047b2668ff544a8bbf30bd7ba3e75486baa01a04badf5386b6c3bc9a7da4d663"
          ],
          "data": "0x000000000000000000000000000000000000000000000000000000000003640e",
          "blockHash": "0x631918ae8f4aa677bcc0403c7a413815b6e709c651ccc5cb634dc868c8d8c972",
          "blockNumber": "0x3",
          "blockTimestamp": "0x68889abc",
          "transactionHash": "0x10802a8229b5e032de3bf92ceabbb7a09719146993c722a5de55da032eed8153",
          "transactionIndex": "0x0",
          "logIndex": "0x0",
          "removed": false
        }
      ],
      "logsBloom": "0x00000000000000000000000000000000000000000000000000000000000000000000000000000000000000000000000000000000000010000800000000000000000000000000000000000000000000000000000000000000000000000000000000000000000000000000000000000000000000000000000000000000000000000000000000000000000000000000000000000000000000000040000000000000000000000000000000000000000080000000000000000000000000000000000000000000000000000000000000000000000000000000000000000000000000000000000000000000000000000000000000000400000000000100000000000000",
      "type": "0x2",
      "transactionHash": "0x10802a8229b5e032de3bf92ceabbb7a09719146993c722a5de55da032eed8153",
      "transactionIndex": "0x0",
      "blockHash": "0x631918ae8f4aa677bcc0403c7a413815b6e709c651ccc5cb634dc868c8d8c972",
      "blockNumber": "0x3",
      "gasUsed": "0xb754",
      "effectiveGasPrice": "0x30cd7bad",
      "blobGasPrice": "0x1",
      "from": "0xa0ee7a142d267c1f36714e4a8f75612f20a79720",
      "to": "0xdff3f80a0ab7b91f15acaec16d0d4d1fce07b0dd",
      "contractAddress": null
    },
    {
      "status": "0x1",
      "cumulativeGasUsed": "0xc606",
      "logs": [
        {
          "address": "0xdff3f80a0ab7b91f15acaec16d0d4d1fce07b0dd",
          "topics": [
            "0xa9f869d70b1db119cda65f920b318209f1b3da0c65e25245575959bc7d112820"
          ],
          "data": "0x000000000000000000000000000000000000000000000000000000000003640e000000000000000000000000c0315c089cffb0618bedfdfe9d0457a2b4168140000000000000000000000000c0315c089cffb0618bedfdfe9d0457a2b4168140",
          "blockHash": "0x0a4ce2708185c555fa6153388a2b73646b00cb28235bc6739db1e90584958b3d",
          "blockNumber": "0x4",
          "blockTimestamp": "0x68889abc",
          "transactionHash": "0xf29818b9f652a737beb1627b414bcc7bcfcc62418b1f5047beea24186a4f7fe1",
          "transactionIndex": "0x0",
          "logIndex": "0x0",
          "removed": false
        }
      ],
      "logsBloom": "0x00000000000000000000000000000000000000001000000000000000000000000000000000000000000000000000000200000000000000000000000000000000000000000000000000000000000000000000000000000000000000000000000000000000000000000000000000000000000000000000000000000000000000000000000000000000000000000000000000000000000000000000000000000000000000000000000000000000000080000000000000000000000000000000000000000000000000000000000000000000000000000000000000000000000000000000000000000000008000000000000000000400000000000100000000000000",
      "type": "0x2",
      "transactionHash": "0xf29818b9f652a737beb1627b414bcc7bcfcc62418b1f5047beea24186a4f7fe1",
      "transactionIndex": "0x0",
      "blockHash": "0x0a4ce2708185c555fa6153388a2b73646b00cb28235bc6739db1e90584958b3d",
      "blockNumber": "0x4",
      "gasUsed": "0xc606",
      "effectiveGasPrice": "0x2ab8af16",
      "blobGasPrice": "0x1",
      "from": "0xa0ee7a142d267c1f36714e4a8f75612f20a79720",
      "to": "0xdff3f80a0ab7b91f15acaec16d0d4d1fce07b0dd",
      "contractAddress": null
    }
  ],
  "libraries": [],
  "pending": [],
  "returns": {},
  "timestamp": 1753782972,
  "chain": 111111,
  "commit": "8a4be131"
}