{
  "transactions": [
    {
      "hash": "0x054d8e797b422b4bccdf5f93204e3cca552b6c255e80a5a90fc882aa863fb66a",
      "transactionType": "CALL",
      "contractName": null,
      "contractAddress": "0xdff3f80a0ab7b91f15acaec16d0d4d1fce07b0dd",
      "function": "permitDestinationChainId(uint256)",
      "arguments": [
        "222222"
      ],
      "transaction": {
        "from": "0xa0ee7a142d267c1f36714e4a8f75612f20a79720",
        "to": "0xdff3f80a0ab7b91f15acaec16d0d4d1fce07b0dd",
        "gas": "0xfd38",
        "value": "0x0",
        "input": "0x44d1da8c000000000000000000000000000000000000000000000000000000000003640e",
        "nonce": "0x3",
        "chainId": "0x1b207"
      },
      "additionalContracts": [],
      "isFixedGasLimit": false
    },
    {
      "hash": "0xd751e54bbd9b326dc708e74d415441f4dc3fed5cd25303ff8daa9e38125231f1",
      "transactionType": "CALL",
      "contractName": null,
      "contractAddress": "0xdff3f80a0ab7b91f15acaec16d0d4d1fce07b0dd",
      "function": "setTokenMapping(uint256,address,address)",
      "arguments": [
        "222222",
        "0xc0315C089CfFB0618bEdFdFE9D0457a2B4168140",
        "0xc0315C089CfFB0618bEdFdFE9D0457a2B4168140"
      ],
      "transaction": {
        "from": "0xa0ee7a142d267c1f36714e4a8f75612f20a79720",
        "to": "0xdff3f80a0ab7b91f15acaec16d0d4d1fce07b0dd",
        "gas": "0x11184",
        "value": "0x0",
        "input": "0x9695ec21000000000000000000000000000000000000000000000000000000000003640e000000000000000000000000c0315c089cffb0618bedfdfe9d0457a2b4168140000000000000000000000000c0315c089cffb0618bedfdfe9d0457a2b4168140",
        "nonce": "0x4",
        "chainId": "0x1b207"
      },
      "additionalContracts": [],
      "isFixedGasLimit": false
    }
  ],
  "receipts": [
    {
      "status": "0x1",
      "cumulativeGasUsed": "0xb754",
      "logs": [
        {
          "address": "0xdff3f80a0ab7b91f15acaec16d0d4d1fce07b0dd",
          "topics": [
            "0x047b2668ff544a8bbf30bd7ba3e75486baa01a04badf5386b6c3bc9a7da4d663"
          ],
          "data": "0x000000000000000000000000000000000000000000000000000000000003640e",
          "blockHash": "0x5289f06ec83125a94e31e4907493b35ea8c1591a0d8327934dcb1267e5c5a82c",
          "blockNumber": "0x2",
          "blockTimestamp": "0x6888c9f9",
          "transactionHash": "0x054d8e797b422b4bccdf5f93204e3cca552b6c255e80a5a90fc882aa863fb66a",
          "transactionIndex": "0x0",
          "logIndex": "0x0",
          "removed": false
        }
      ],
      "logsBloom": "0x00000000000000000000000000000000000000000000000000000000000000000000000000000000000000000000000000000000000010000800000000000000000000000000000000000000000000000000000000000000000000000000000000000000000000000000000000000000000000000000000000000000000000000000000000000000000000000000000000000000000000000040000000000000000000000000000000000000000080000000000000000000000000000000000000000000000000000000000000000000000000000000000000000000000000000000000000000000000000000000000000000400000000000100000000000000",
      "type": "0x2",
      "transactionHash": "0x054d8e797b422b4bccdf5f93204e3cca552b6c255e80a5a90fc882aa863fb66a",
      "transactionIndex": "0x0",
      "blockHash": "0x5289f06ec83125a94e31e4907493b35ea8c1591a0d8327934dcb1267e5c5a82c",
      "blockNumber": "0x2",
      "gasUsed": "0xb754",
      "effectiveGasPrice": "0x37b8bd26",
      "blobGasPrice": "0x1",
      "from": "0xa0ee7a142d267c1f36714e4a8f75612f20a79720",
      "to": "0xdff3f80a0ab7b91f15acaec16d0d4d1fce07b0dd",
      "contractAddress": null
    },
    {
      "status": "0x1",
      "cumulativeGasUsed": "0xc606",
      "logs": [
        {
          "address": "0xdff3f80a0ab7b91f15acaec16d0d4d1fce07b0dd",
          "topics": [
            "0xa9f869d70b1db119cda65f920b318209f1b3da0c65e25245575959bc7d112820"
          ],
          "data": "0x000000000000000000000000000000000000000000000000000000000003640e000000000000000000000000c0315c089cffb0618bedfdfe9d0457a2b4168140000000000000000000000000c0315c089cffb0618bedfdfe9d0457a2b4168140",
          "blockHash": "0x248a0607a5fdfcb7a762ccf3a1685667586898a18e09b003dc9b127e538d36db",
          "blockNumber": "0x3",
          "blockTimestamp": "0x6888c9f9",
          "transactionHash": "0xd751e54bbd9b326dc708e74d415441f4dc3fed5cd25303ff8daa9e38125231f1",
          "transactionIndex": "0x0",
          "logIndex": "0x0",
          "removed": false
        }
      ],
      "logsBloom": "0x00000000000000000000000000000000000000001000000000000000000000000000000000000000000000000000000200000000000000000000000000000000000000000000000000000000000000000000000000000000000000000000000000000000000000000000000000000000000000000000000000000000000000000000000000000000000000000000000000000000000000000000000000000000000000000000000000000000000080000000000000000000000000000000000000000000000000000000000000000000000000000000000000000000000000000000000000000000008000000000000000000400000000000100000000000000",
      "type": "0x2",
      "transactionHash": "0xd751e54bbd9b326dc708e74d415441f4dc3fed5cd25303ff8daa9e38125231f1",
      "transactionIndex": "0x0",
      "blockHash": "0x248a0607a5fdfcb7a762ccf3a1685667586898a18e09b003dc9b127e538d36db",
      "blockNumber": "0x3",
      "gasUsed": "0xc606",
      "effectiveGasPrice": "0x30c739b7",
      "blobGasPrice": "0x1",
      "from": "0xa0ee7a142d267c1f36714e4a8f75612f20a79720",
      "to": "0xdff3f80a0ab7b91f15acaec16d0d4d1fce07b0dd",
      "contractAddress": null
    }
  ],
  "libraries": [],
  "pending": [],
  "returns": {},
  "timestamp": 1753795065,
  "chain": 111111,
  "commit": "8a4be131"
}