{
  "transactions": [
    {
      "hash": "0xe627cbf7f415d4dc798b00fb6dbe1283aeb08450f2594e424796aeb8ee5f60bc",
      "transactionType": "CALL",
      "contractName": null,
      "contractAddress": "0xe16716c8210d8c9e8b8c756e70558d049f8eaca1",
      "function": "permitDestinationChainId(uint256)",
      "arguments": [
        "314159"
      ],
      "transaction": {
        "from": "0x87350ccfe163cbd6172c6ff3d39dbc93b01f9f46",
        "to": "0xe16716c8210d8c9e8b8c756e70558d049f8eaca1",
        "gas": "0x11a44",
        "value": "0x0",
        "input": "0x44d1da8c000000000000000000000000000000000000000000000000000000000004cb2f",
        "nonce": "0x116",
        "chainId": "0x14a34"
      },
      "additionalContracts": [],
      "isFixedGasLimit": false
    },
    {
      "hash": "0x9f6046e3f8b07769b4fdcb062eac6b21996b81cf54691a827771ead486b01273",
      "transactionType": "CALL",
      "contractName": null,
      "contractAddress": "0xe16716c8210d8c9e8b8c756e70558d049f8eaca1",
      "function": "setTokenMapping(uint256,address,address)",
      "arguments": [
        "314159",
        "0xb3042734b608a1B16e9e86B374A3f3e389B4cDf0",
        "0x9Eb392A6286138E5d59a40Da5398e567Ab3AAd7c"
      ],
      "transaction": {
        "from": "0x87350ccfe163cbd6172c6ff3d39dbc93b01f9f46",
        "to": "0xe16716c8210d8c9e8b8c756e70558d049f8eaca1",
        "gas": "0x22672",
        "value": "0x0",
        "input": "0x9695ec21000000000000000000000000000000000000000000000000000000000004cb2f000000000000000000000000b3042734b608a1b16e9e86b374a3f3e389b4cdf00000000000000000000000009eb392a6286138e5d59a40da5398e567ab3aad7c",
        "nonce": "0x117",
        "chainId": "0x14a34"
      },
      "additionalContracts": [],
      "isFixedGasLimit": false
    },
    {
      "hash": "0x23dce0fd89df51791768270e778336524bcc1a150a3f9bd094753293ce332821",
      "transactionType": "CALL",
      "contractName": null,
      "contractAddress": "0xe16716c8210d8c9e8b8c756e70558d049f8eaca1",
      "function": "setPermit2Relayer(address)",
      "arguments": [
        "0x94e0185aCFb16D6ba1A9747EC2E08F5e7bE614cA"
      ],
      "transaction": {
        "from": "0x87350ccfe163cbd6172c6ff3d39dbc93b01f9f46",
        "to": "0xe16716c8210d8c9e8b8c756e70558d049f8eaca1",
        "gas": "0xb709",
        "value": "0x0",
        "input": "0xe8ede75300000000000000000000000094e0185acfb16d6ba1a9747ec2e08f5e7be614ca",
        "nonce": "0x118",
        "chainId": "0x14a34"
      },
      "additionalContracts": [],
      "isFixedGasLimit": false
    }
  ],
  "receipts": [
    {
      "status": "0x1",
      "cumulativeGasUsed": "0x25c6771",
      "logs": [
        {
          "address": "0xe16716c8210d8c9e8b8c756e70558d049f8eaca1",
          "topics": [
            "0x047b2668ff544a8bbf30bd7ba3e75486baa01a04badf5386b6c3bc9a7da4d663"
          ],
          "data": "0x000000000000000000000000000000000000000000000000000000000004cb2f",
          "blockHash": "0xd1047d02b2521ac2b405dbbf47419dfc2e6068846a56ef94004186f14fbf30f9",
          "blockNumber": "0x203815e",
          "blockTimestamp": "0x691a619c",
          "transactionHash": "0xe627cbf7f415d4dc798b00fb6dbe1283aeb08450f2594e424796aeb8ee5f60bc",
          "transactionIndex": "0x11",
          "logIndex": "0x17",
          "removed": false
        }
      ],
      "logsBloom": "0x00000000000000000000000000000000000000000000000000000000000000000000000000008000000000000000000000000000000010000800000000000000000000000000000000000000000000000000000000000000000000000000000000000000000000000000000000000000000000000000000000000000000000000000000000000000000000000000000000000000000000000040000000000000000000000000000000000000000000000000000000000000000000000100000000000000000000000000000000000000000000000000000000000000004000000000000000000000000000000000000000000000000000000000000000000000",
      "type": "0x2",
      "transactionHash": "0xe627cbf7f415d4dc798b00fb6dbe1283aeb08450f2594e424796aeb8ee5f60bc",
      "transactionIndex": "0x11",
      "blockHash": "0xd1047d02b2521ac2b405dbbf47419dfc2e6068846a56ef94004186f14fbf30f9",
      "blockNumber": "0x203815e",
      "gasUsed": "0xcc5c",
      "effectiveGasPrice": "0xf4281",
      "from": "0x87350ccfe163cbd6172c6ff3d39dbc93b01f9f46",
      "to": "0xe16716c8210d8c9e8b8c756e70558d049f8eaca1",
      "contractAddress": null,
      "l1BaseFeeScalar": "0x44d",
      "l1BlobBaseFee": "0x1",
      "l1BlobBaseFeeScalar": "0xa118b",
      "l1Fee": "0x50",
      "l1GasPrice": "0x8",
      "l1GasUsed": "0x640"
    },
    {
      "status": "0x1",
      "cumulativeGasUsed": "0x25df5f5",
      "logs": [
        {
          "address": "0xe16716c8210d8c9e8b8c756e70558d049f8eaca1",
          "topics": [
            "0x00f6b276aebfc163c3646a63a0286f845fdd2df56be91b61b62044067ce849a4"
          ],
          "data": "0x000000000000000000000000000000000000000000000000000000000004cb2f000000000000000000000000b3042734b608a1b16e9e86b374a3f3e389b4cdf00000000000000000000000009eb392a6286138e5d59a40da5398e567ab3aad7c",
          "blockHash": "0xd1047d02b2521ac2b405dbbf47419dfc2e6068846a56ef94004186f14fbf30f9",
          "blockNumber": "0x203815e",
          "blockTimestamp": "0x691a619c",
          "transactionHash": "0x9f6046e3f8b07769b4fdcb062eac6b21996b81cf54691a827771ead486b01273",
          "transactionIndex": "0x12",
          "logIndex": "0x18",
          "removed": false
        }
      ],
      "logsBloom": "0x00000000000000000000000000000000000000000000000000000000000000000000000000008000000000000000000000000000000000000000000000080000000000000000000000000000000000000000000000000000000000000000000000000000000000000000000000000000000000000000000000000000000000000000000000000000000000000000000000000000000000000000000000000000000000000000000000000000000000000000000000000000004000000100000000000000000000000000000000000000000000000000000000000000004000000000000000000000000000000000000000000000000000000000000000001000",
      "type": "0x2",
      "transactionHash": "0x9f6046e3f8b07769b4fdcb062eac6b21996b81cf54691a827771ead486b01273",
      "transactionIndex": "0x12",
      "blockHash": "0xd1047d02b2521ac2b405dbbf47419dfc2e6068846a56ef94004186f14fbf30f9",
      "blockNumber": "0x203815e",
      "gasUsed": "0x18e84",
      "effectiveGasPrice": "0xf4281",
      "from": "0x87350ccfe163cbd6172c6ff3d39dbc93b01f9f46",
      "to": "0xe16716c8210d8c9e8b8c756e70558d049f8eaca1",
      "contractAddress": null,
      "l1BaseFeeScalar": "0x44d",
      "l1BlobBaseFee": "0x1",
      "l1BlobBaseFeeScalar": "0xa118b",
      "l1Fee": "0x55",
      "l1GasPrice": "0x8",
      "l1GasUsed": "0x6a4"
    },
    {
      "status": "0x1",
      "cumulativeGasUsed": "0x25e7a79",
      "logs": [
        {
          "address": "0xe16716c8210d8c9e8b8c756e70558d049f8eaca1",
          "topics": [
            "0xe85a6ec2afe29a301eeda921f161232f0288e22b7378ecbd84bf62b05d4b1a4c",
            "0x00000000000000000000000094e0185acfb16d6ba1a9747ec2e08f5e7be614ca"
          ],
          "data": "0x",
          "blockHash": "0xd1047d02b2521ac2b405dbbf47419dfc2e6068846a56ef94004186f14fbf30f9",
          "blockNumber": "0x203815e",
          "blockTimestamp": "0x691a619c",
          "transactionHash": "0x23dce0fd89df51791768270e778336524bcc1a150a3f9bd094753293ce332821",
          "transactionIndex": "0x13",
          "logIndex": "0x19",
          "removed": false
        }
      ],
      "logsBloom": "0x00000000000000000000800000000000000000000000000000000000000000000000000000008000000000000000000000000000000000000000000000000000000010000000000000000000000000000000000000000000000000000000000000000000000000000000000008000100000000000000000000000000000000000000000000000000000000000000000000020000000000000000000000000000000000000000000000000000000000000000000000000000000000000100000000800000000000000000000000000000000000000000000000000000004000000000000000000000000000000000000000000000000000000000000000000000",
      "type": "0x2",
      "transactionHash": "0x23dce0fd89df51791768270e778336524bcc1a150a3f9bd094753293ce332821",
      "transactionIndex": "0x13",
      "blockHash": "0xd1047d02b2521ac2b405dbbf47419dfc2e6068846a56ef94004186f14fbf30f9",
      "blockNumber": "0x203815e",
      "gasUsed": "0x8484",
      "effectiveGasPrice": "0xf4281",
      "from": "0x87350ccfe163cbd6172c6ff3d39dbc93b01f9f46",
      "to": "0xe16716c8210d8c9e8b8c756e70558d049f8eaca1",
      "contractAddress": null,
      "l1BaseFeeScalar": "0x44d",
      "l1BlobBaseFee": "0x1",
      "l1BlobBaseFeeScalar": "0xa118b",
      "l1Fee": "0x50",
      "l1GasPrice": "0x8",
      "l1GasUsed": "0x640"
    }
  ],
  "libraries": [],
  "pending": [],
  "returns": {},
  "timestamp": 1763336604899,
  "chain": 84532,
  "commit": "a5aa490b"
}