{
  "transactions": [
    {
      "hash": "0xb3d47c172628e80ae7b84f58662dedce9776e6a0c47ba88d13d82b5f3bafa9c5",
      "transactionType": "CALL",
      "contractName": null,
      "contractAddress": "0x946ee4a1a389529b6aabf94ec2f14536a1eb5bfa",
      "function": "permitDestinationChainId(uint256)",
      "arguments": [
        "314159"
      ],
      "transaction": {
        "from": "0x87350ccfe163cbd6172c6ff3d39dbc93b01f9f46",
        "to": "0x946ee4a1a389529b6aabf94ec2f14536a1eb5bfa",
        "gas": "0x11a44",
        "value": "0x0",
        "input": "0x44d1da8c000000000000000000000000000000000000000000000000000000000004cb2f",
        "nonce": "0xec",
        "chainId": "0x14a34"
      },
      "additionalContracts": [],
      "isFixedGasLimit": false
    },
    {
      "hash": "0x32c31c4b01504669ccf9c87ef7ae7d4aaac7daa43613964466a1ba1b2a55091f",
      "transactionType": "CALL",
      "contractName": null,
      "contractAddress": "0x946ee4a1a389529b6aabf94ec2f14536a1eb5bfa",
      "function": "setTokenMapping(uint256,address,address)",
      "arguments": [
        "314159",
        "0xb3042734b608a1B16e9e86B374A3f3e389B4cDf0",
        "0x9Eb392A6286138E5d59a40Da5398e567Ab3AAd7c"
      ],
      "transaction": {
        "from": "0x87350ccfe163cbd6172c6ff3d39dbc93b01f9f46",
        "to": "0x946ee4a1a389529b6aabf94ec2f14536a1eb5bfa",
        "gas": "0x22653",
        "value": "0x0",
        "input": "0x9695ec21000000000000000000000000000000000000000000000000000000000004cb2f000000000000000000000000b3042734b608a1b16e9e86b374a3f3e389b4cdf00000000000000000000000009eb392a6286138e5d59a40da5398e567ab3aad7c",
        "nonce": "0xed",
        "chainId": "0x14a34"
      },
      "additionalContracts": [],
      "isFixedGasLimit": false
    },
    {
      "hash": "0x9f8adad5a12f9f75f4f6d89bf90f58845901c551258d56ef351ea7cffd6f8e3e",
      "transactionType": "CALL",
      "contractName": null,
      "contractAddress": "0x946ee4a1a389529b6aabf94ec2f14536a1eb5bfa",
      "function": "setPermit2Relayer(address)",
      "arguments": [
        "0x2eF417C64f25c770b83DB27A3AC58Ec377b0Fd9c"
      ],
      "transaction": {
        "from": "0x87350ccfe163cbd6172c6ff3d39dbc93b01f9f46",
        "to": "0x946ee4a1a389529b6aabf94ec2f14536a1eb5bfa",
        "gas": "0xb6ea",
        "value": "0x0",
        "input": "0xe8ede7530000000000000000000000002ef417c64f25c770b83db27a3ac58ec377b0fd9c",
        "nonce": "0xee",
        "chainId": "0x14a34"
      },
      "additionalContracts": [],
      "isFixedGasLimit": false
    }
  ],
  "receipts": [
    {
      "status": "0x1",
      "cumulativeGasUsed": "0x68e0ae",
      "logs": [
        {
          "address": "0x946ee4a1a389529b6aabf94ec2f14536a1eb5bfa",
          "topics": [
            "0x047b2668ff544a8bbf30bd7ba3e75486baa01a04badf5386b6c3bc9a7da4d663"
          ],
          "data": "0x000000000000000000000000000000000000000000000000000000000004cb2f",
          "blockHash": "0x37b252e37bc06814d7988a0ccfafbf03bba1527f27fe1fd57155de1806558aa9",
          "blockNumber": "0x20208e0",
          "blockTimestamp": "0x691770a0",
          "transactionHash": "0xb3d47c172628e80ae7b84f58662dedce9776e6a0c47ba88d13d82b5f3bafa9c5",
          "transactionIndex": "0xb",
          "logIndex": "0x20",
          "removed": false
        }
      ],
      "logsBloom": "0x00000000000000000000000000000000000000000000000000000000000000000000000000000000000000000000000000000000000010000800000000000000000000000000000000000000000000000000000000000000000000000000000000000000000000000000000000000000000000000000000000000000000000000000000000000000000000000000000000000000000000000040000000000000000200000000000000000000000000000000000000000000000000000000000000000000000000000000000000000000000000000000000000000000000000080000000000000000000000000000008000000000000000000000000000000000",
      "type": "0x2",
      "transactionHash": "0xb3d47c172628e80ae7b84f58662dedce9776e6a0c47ba88d13d82b5f3bafa9c5",
      "transactionIndex": "0xb",
      "blockHash": "0x37b252e37bc06814d7988a0ccfafbf03bba1527f27fe1fd57155de1806558aa9",
      "blockNumber": "0x20208e0",
      "gasUsed": "0xcc5c",
      "effectiveGasPrice": "0xf427e",
      "from": "0x87350ccfe163cbd6172c6ff3d39dbc93b01f9f46",
      "to": "0x946ee4a1a389529b6aabf94ec2f14536a1eb5bfa",
      "contractAddress": null,
      "l1BaseFeeScalar": "0x44d",
      "l1BlobBaseFee": "0x1",
      "l1BlobBaseFeeScalar": "0xa118b",
      "l1Fee": "0x58",
      "l1GasPrice": "0xd",
      "l1GasUsed": "0x640"
    },
    {
      "status": "0x1",
      "cumulativeGasUsed": "0x6a6f1c",
      "logs": [
        {
          "address": "0x946ee4a1a389529b6aabf94ec2f14536a1eb5bfa",
          "topics": [
            "0x00f6b276aebfc163c3646a63a0286f845fdd2df56be91b61b62044067ce849a4"
          ],
          "data": "0x000000000000000000000000000000000000000000000000000000000004cb2f000000000000000000000000b3042734b608a1b16e9e86b374a3f3e389b4cdf00000000000000000000000009eb392a6286138e5d59a40da5398e567ab3aad7c",
          "blockHash": "0x37b252e37bc06814d7988a0ccfafbf03bba1527f27fe1fd57155de1806558aa9",
          "blockNumber": "0x20208e0",
          "blockTimestamp": "0x691770a0",
          "transactionHash": "0x32c31c4b01504669ccf9c87ef7ae7d4aaac7daa43613964466a1ba1b2a55091f",
          "transactionIndex": "0xc",
          "logIndex": "0x21",
          "removed": false
        }
      ],
      "logsBloom": "0x00000000000000000000000000000000000000000000000000000000000000000000000000000000000000000000000000000000000000000000000000080000000000000000000000000000000000000000000000000000000000000000000000000000000000000000000000000000000000000000000000000000000000000000000000000000000000000000000000000000000000000000000000000000000200000000000000000000000000000000000000000000004000000000000000000000000000000000000000000000000000000000000000000000000000080000000000000000000000000000008000000000000000000000000000001000",
      "type": "0x2",
      "transactionHash": "0x32c31c4b01504669ccf9c87ef7ae7d4aaac7daa43613964466a1ba1b2a55091f",
      "transactionIndex": "0xc",
      "blockHash": "0x37b252e37bc06814d7988a0ccfafbf03bba1527f27fe1fd57155de1806558aa9",
      "blockNumber": "0x20208e0",
      "gasUsed": "0x18e6e",
      "effectiveGasPrice": "0xf427e",
      "from": "0x87350ccfe163cbd6172c6ff3d39dbc93b01f9f46",
      "to": "0x946ee4a1a389529b6aabf94ec2f14536a1eb5bfa",
      "contractAddress": null,
      "l1BaseFeeScalar": "0x44d",
      "l1BlobBaseFee": "0x1",
      "l1BlobBaseFeeScalar": "0xa118b",
      "l1Fee": "0x5d",
      "l1GasPrice": "0xd",
      "l1GasUsed": "0x697"
    },
    {
      "status": "0x1",
      "cumulativeGasUsed": "0x6af38a",
      "logs": [
        {
          "address": "0x946ee4a1a389529b6aabf94ec2f14536a1eb5bfa",
          "topics": [
            "0xe85a6ec2afe29a301eeda921f161232f0288e22b7378ecbd84bf62b05d4b1a4c",
            "0x0000000000000000000000002ef417c64f25c770b83db27a3ac58ec377b0fd9c"
          ],
          "data": "0x",
          "blockHash": "0x37b252e37bc06814d7988a0ccfafbf03bba1527f27fe1fd57155de1806558aa9",
          "blockNumber": "0x20208e0",
          "blockTimestamp": "0x691770a0",
          "transactionHash": "0x9f8adad5a12f9f75f4f6d89bf90f58845901c551258d56ef351ea7cffd6f8e3e",
          "transactionIndex": "0xd",
          "logIndex": "0x22",
          "removed": false
        }
      ],
      "logsBloom": "0x00000000000000000000800000000000000000000000000000000000000000000000000000000000000000000000000000000000000000000000000000000000000000000000000000000000000000000000000000000000000000000000000000000000000000000000000008000100000000000000000000000000000000000000000000000000000000000000000000000000000000080000000000000000000200000000000000000000000000000000000000000000000000000000000000000000000020000000000000000000000000000000000000000000000000080000000000000000000000000000008000000000000000000000000800000000",
      "type": "0x2",
      "transactionHash": "0x9f8adad5a12f9f75f4f6d89bf90f58845901c551258d56ef351ea7cffd6f8e3e",
      "transactionIndex": "0xd",
      "blockHash": "0x37b252e37bc06814d7988a0ccfafbf03bba1527f27fe1fd57155de1806558aa9",
      "blockNumber": "0x20208e0",
      "gasUsed": "0x846e",
      "effectiveGasPrice": "0xf427e",
      "from": "0x87350ccfe163cbd6172c6ff3d39dbc93b01f9f46",
      "to": "0x946ee4a1a389529b6aabf94ec2f14536a1eb5bfa",
      "contractAddress": null,
      "l1BaseFeeScalar": "0x44d",
      "l1BlobBaseFee": "0x1",
      "l1BlobBaseFeeScalar": "0xa118b",
      "l1Fee": "0x58",
      "l1GasPrice": "0xd",
      "l1GasUsed": "0x640"
    }
  ],
  "libraries": [],
  "pending": [],
  "returns": {},
  "timestamp": 1763143838749,
  "chain": 84532,
  "commit": "9ab6010f"
}