{
  "transactions": [
    {
      "hash": "0x259c5851410d23993e3f2cf501c1d286dd3bae4dd6b5fea2b4a8aa64c5b2d07d",
      "transactionType": "CALL",
      "contractName": null,
      "contractAddress": "0xad5312ce0cdda7661fd204105d8e8c921015ced5",
      "function": "permitDestinationChainId(uint256)",
      "arguments": [
        "314159"
      ],
      "transaction": {
        "from": "0x87350ccfe163cbd6172c6ff3d39dbc93b01f9f46",
        "to": "0xad5312ce0cdda7661fd204105d8e8c921015ced5",
        "gas": "0x11a44",
        "value": "0x0",
        "input": "0x44d1da8c000000000000000000000000000000000000000000000000000000000004cb2f",
        "nonce": "0xe0",
        "chainId": "0x14a34"
      },
      "additionalContracts": [],
      "isFixedGasLimit": false
    },
    {
      "hash": "0x699cc1f8775aca0ff48718eb4f7262e2aef3fba66535913a279e2cfc86218bb1",
      "transactionType": "CALL",
      "contractName": null,
      "contractAddress": "0xad5312ce0cdda7661fd204105d8e8c921015ced5",
      "function": "setTokenMapping(uint256,address,address)",
      "arguments": [
        "314159",
        "0xb3042734b608a1B16e9e86B374A3f3e389B4cDf0",
        "0x9Eb392A6286138E5d59a40Da5398e567Ab3AAd7c"
      ],
      "transaction": {
        "from": "0x87350ccfe163cbd6172c6ff3d39dbc93b01f9f46",
        "to": "0xad5312ce0cdda7661fd204105d8e8c921015ced5",
        "gas": "0x22653",
        "value": "0x0",
        "input": "0x9695ec21000000000000000000000000000000000000000000000000000000000004cb2f000000000000000000000000b3042734b608a1b16e9e86b374a3f3e389b4cdf00000000000000000000000009eb392a6286138e5d59a40da5398e567ab3aad7c",
        "nonce": "0xe1",
        "chainId": "0x14a34"
      },
      "additionalContracts": [],
      "isFixedGasLimit": false
    }
  ],
  "receipts": [
    {
      "status": "0x1",
      "cumulativeGasUsed": "0xc377b",
      "logs": [
        {
          "address": "0xad5312ce0cdda7661fd204105d8e8c921015ced5",
          "topics": [
            "0x047b2668ff544a8bbf30bd7ba3e75486baa01a04badf5386b6c3bc9a7da4d663"
          ],
          "data": "0x000000000000000000000000000000000000000000000000000000000004cb2f",
          "blockHash": "0x7fd37866017d17d9fe2b8ae98f84c2c0405a377e36aaf03a6d12a30e7a9c110e",
          "blockNumber": "0x201d547",
          "blockTimestamp": "0x6917096e",
          "transactionHash": "0x259c5851410d23993e3f2cf501c1d286dd3bae4dd6b5fea2b4a8aa64c5b2d07d",
          "transactionIndex": "0x5",
          "logIndex": "0xb",
          "removed": false
        }
      ],
      "logsBloom": "0x00000000000000000000000000000000000000000000000000000000000000000000000000000000000000000000000000000000000010000800000000000000000000000000000000000000000000000000000000000000000000000000000000000000000000000000000000000800000000000000000000000000000000000000000000000000000000000000000000000000000000000040000000000000000000000000000000000000000000000000000000000000000200000000000000000000000000000000000000000000004000000000000000000000000000000000000000000000000000000000000000000000000000000000000000000000",
      "type": "0x2",
      "transactionHash": "0x259c5851410d23993e3f2cf501c1d286dd3bae4dd6b5fea2b4a8aa64c5b2d07d",
      "transactionIndex": "0x5",
      "blockHash": "0x7fd37866017d17d9fe2b8ae98f84c2c0405a377e36aaf03a6d12a30e7a9c110e",
      "blockNumber": "0x201d547",
      "gasUsed": "0xcc5c",
      "effectiveGasPrice": "0xf4287",
      "from": "0x87350ccfe163cbd6172c6ff3d39dbc93b01f9f46",
      "to": "0xad5312ce0cdda7661fd204105d8e8c921015ced5",
      "contractAddress": null,
      "l1BaseFeeScalar": "0x44d",
      "l1BlobBaseFee": "0x1",
      "l1BlobBaseFeeScalar": "0xa118b",
      "l1Fee": "0x55",
      "l1GasPrice": "0xb",
      "l1GasUsed": "0x640"
    },
    {
      "status": "0x1",
      "cumulativeGasUsed": "0xe66a5",
      "logs": [
        {
          "address": "0xad5312ce0cdda7661fd204105d8e8c921015ced5",
          "topics": [
            "0x00f6b276aebfc163c3646a63a0286f845fdd2df56be91b61b62044067ce849a4"
          ],
          "data": "0x000000000000000000000000000000000000000000000000000000000004cb2f000000000000000000000000b3042734b608a1b16e9e86b374a3f3e389b4cdf00000000000000000000000009eb392a6286138e5d59a40da5398e567ab3aad7c",
          "blockHash": "0x7fd37866017d17d9fe2b8ae98f84c2c0405a377e36aaf03a6d12a30e7a9c110e",
          "blockNumber": "0x201d547",
          "blockTimestamp": "0x6917096e",
          "transactionHash": "0x699cc1f8775aca0ff48718eb4f7262e2aef3fba66535913a279e2cfc86218bb1",
          "transactionIndex": "0x7",
          "logIndex": "0xd",
          "removed": false
        }
      ],
      "logsBloom": "0x00000000000000000000000000000000000000000000000000000000000000000000000000000000000000000000000000000000000000000000000000080000000000000000000000000000000000000000000000000000000000000000000000000000000000000000000000000800000000000000000000000000000000000000000000000000000000000000000000000000000000000000000000000000000000000000000000000000000000000000000000000000004200000000000000000000000000000000000000000000004000000000000000000000000000000000000000000000000000000000000000000000000000000000000000001000",
      "type": "0x2",
      "transactionHash": "0x699cc1f8775aca0ff48718eb4f7262e2aef3fba66535913a279e2cfc86218bb1",
      "transactionIndex": "0x7",
      "blockHash": "0x7fd37866017d17d9fe2b8ae98f84c2c0405a377e36aaf03a6d12a30e7a9c110e",
      "blockNumber": "0x201d547",
      "gasUsed": "0x18e6e",
      "effectiveGasPrice": "0xf4287",
      "from": "0x87350ccfe163cbd6172c6ff3d39dbc93b01f9f46",
      "to": "0xad5312ce0cdda7661fd204105d8e8c921015ced5",
      "contractAddress": null,
      "l1BaseFeeScalar": "0x44d",
      "l1BlobBaseFee": "0x1",
      "l1BlobBaseFeeScalar": "0xa118b",
      "l1Fee": "0x55",
      "l1GasPrice": "0xb",
      "l1GasUsed": "0x697"
    }
  ],
  "libraries": [],
  "pending": [],
  "returns": {},
  "timestamp": 1763117420117,
  "chain": 84532,
  "commit": "e70127fe"
}