{
  "transactions": [
    {
      "hash": "0x730c46a4b512208614d1a0ea4ebccbe0f83e5de9afe66025bf9318d41fd4ea46",
      "transactionType": "CALL",
      "contractName": null,
      "contractAddress": "0xb8090bb54d472105af98384f0159572c7ffea813",
      "function": "permitDestinationChainId(uint256)",
      "arguments": [
        "314159"
      ],
      "transaction": {
        "from": "0x87350ccfe163cbd6172c6ff3d39dbc93b01f9f46",
        "to": "0xb8090bb54d472105af98384f0159572c7ffea813",
        "gas": "0x1195e",
        "value": "0x0",
        "input": "0x44d1da8c000000000000000000000000000000000000000000000000000000000004cb2f",
        "nonce": "0xb8",
        "chainId": "0x14a34"
      },
      "additionalContracts": [],
      "isFixedGasLimit": false
    },
    {
      "hash": "0x046847545915d0a0880535278f8d5161c52cc44423e7451c85a80afa7b1b8241",
      "transactionType": "CALL",
      "contractName": null,
      "contractAddress": "0xb8090bb54d472105af98384f0159572c7ffea813",
      "function": "setTokenMapping(uint256,address,address)",
      "arguments": [
        "314159",
        "0xb3042734b608a1B16e9e86B374A3f3e389B4cDf0",
        "0x7FA069208b80c76467420721FAD3a770A88e117A"
      ],
      "transaction": {
        "from": "0x87350ccfe163cbd6172c6ff3d39dbc93b01f9f46",
        "to": "0xb8090bb54d472105af98384f0159572c7ffea813",
        "gas": "0x224fc",
        "value": "0x0",
        "input": "0x9695ec21000000000000000000000000000000000000000000000000000000000004cb2f000000000000000000000000b3042734b608a1b16e9e86b374a3f3e389b4cdf00000000000000000000000007fa069208b80c76467420721fad3a770a88e117a",
        "nonce": "0xb9",
        "chainId": "0x14a34"
      },
      "additionalContracts": [],
      "isFixedGasLimit": false
    },
    {
      "hash": "0x5c806d77f10d59e28fff5b4b0a4e34cf1d614c9d269d41e986bf4b6aad18ba22",
      "transactionType": "CALL",
      "contractName": null,
      "contractAddress": "0xb8090bb54d472105af98384f0159572c7ffea813",
      "function": "setPermit2Relayer(address)",
      "arguments": [
        "0xDf519ccd937f36615b7f60c251141a6A137b1559"
      ],
      "transaction": {
        "from": "0x87350ccfe163cbd6172c6ff3d39dbc93b01f9f46",
        "to": "0xb8090bb54d472105af98384f0159572c7ffea813",
        "gas": "0x12bd2",
        "value": "0x0",
        "input": "0xe8ede753000000000000000000000000df519ccd937f36615b7f60c251141a6a137b1559",
        "nonce": "0xba",
        "chainId": "0x14a34"
      },
      "additionalContracts": [],
      "isFixedGasLimit": false
    }
  ],
  "receipts": [
    {
      "status": "0x1",
      "cumulativeGasUsed": "0x7bc68c",
      "logs": [
        {
          "address": "0xb8090bb54d472105af98384f0159572c7ffea813",
          "topics": [
            "0x047b2668ff544a8bbf30bd7ba3e75486baa01a04badf5386b6c3bc9a7da4d663"
          ],
          "data": "0x000000000000000000000000000000000000000000000000000000000004cb2f",
          "blockHash": "0x4cc9e2c32c4f4d71c09d546deeba7cde824709887fe5a8c323e184d06775dd87",
          "blockNumber": "0x200c681",
          "blockTimestamp": "0x6914ebe2",
          "transactionHash": "0x730c46a4b512208614d1a0ea4ebccbe0f83e5de9afe66025bf9318d41fd4ea46",
          "transactionIndex": "0xb",
          "logIndex": "0x151",
          "removed": false
        }
      ],
      "logsBloom": "0x00000000000000000000000000000000000000000000000000000000000000000000000000000000000000000000000000000000000010000800000000000000000000000000100000000000000000000000000000000000000000000000000000000000000000000000100000000000000000000000000000000000000000000000000000000000000000000000000000000000000000000040000000000000000000000000000000000000000000000000010000000000000000000000000000000000000000000000000000000000000000000000000000000000000000000000000000000000000000000000000000000000000000000000000000000000",
      "type": "0x2",
      "transactionHash": "0x730c46a4b512208614d1a0ea4ebccbe0f83e5de9afe66025bf9318d41fd4ea46",
      "transactionIndex": "0xb",
      "blockHash": "0x4cc9e2c32c4f4d71c09d546deeba7cde824709887fe5a8c323e184d06775dd87",
      "blockNumber": "0x200c681",
      "gasUsed": "0xcbb5",
      "effectiveGasPrice": "0xf4288",
      "from": "0x87350ccfe163cbd6172c6ff3d39dbc93b01f9f46",
      "to": "0xb8090bb54d472105af98384f0159572c7ffea813",
      "contractAddress": null,
      "l1BaseFeeScalar": "0x44d",
      "l1BlobBaseFee": "0x1",
      "l1BlobBaseFeeScalar": "0xa118b",
      "l1Fee": "0x55",
      "l1GasPrice": "0xb",
      "l1GasUsed": "0x640"
    },
    {
      "status": "0x1",
      "cumulativeGasUsed": "0x7d5401",
      "logs": [
        {
          "address": "0xb8090bb54d472105af98384f0159572c7ffea813",
          "topics": [
            "0x00f6b276aebfc163c3646a63a0286f845fdd2df56be91b61b62044067ce849a4"
          ],
          "data": "0x000000000000000000000000000000000000000000000000000000000004cb2f000000000000000000000000b3042734b608a1b16e9e86b374a3f3e389b4cdf00000000000000000000000007fa069208b80c76467420721fad3a770a88e117a",
          "blockHash": "0x44a8d36768b99a7068c8c952c51e50769c12f9fcd8884c1cb246f83116b5d015",
          "blockNumber": "0x200c681",
          "blockTimestamp": "0x6914ebe2",
          "transactionHash": "0x046847545915d0a0880535278f8d5161c52cc44423e7451c85a80afa7b1b8241",
          "transactionIndex": "0xc",
          "logIndex": "0x152",
          "removed": false
        }
      ],
      "logsBloom": "0x00000000000000000000000000000000000000000000000000000000000000000000000000000000000000000000000000000000000000000000000000080000000000000000100000000000000000000000000000000000000000000000000000000000000000000000100000000000000000000000000000000000000000000000000000000000000000000000000000000000000000000000000000000000000000000000000000000000000000000000010000000000004000000000000000000000000000000000000000000000000000000000000000000000000000000000000000000000000000000000000000000000000000000000000000001000",
      "type": "0x2",
      "transactionHash": "0x046847545915d0a0880535278f8d5161c52cc44423e7451c85a80afa7b1b8241",
      "transactionIndex": "0xc",
      "blockHash": "0x44a8d36768b99a7068c8c952c51e50769c12f9fcd8884c1cb246f83116b5d015",
      "blockNumber": "0x200c681",
      "gasUsed": "0x18d75",
      "effectiveGasPrice": "0xf4288",
      "from": "0x87350ccfe163cbd6172c6ff3d39dbc93b01f9f46",
      "to": "0xb8090bb54d472105af98384f0159572c7ffea813",
      "contractAddress": null,
      "l1BaseFeeScalar": "0x44d",
      "l1BlobBaseFee": "0x1",
      "l1BlobBaseFeeScalar": "0xa118b",
      "l1Fee": "0x55",
      "l1GasPrice": "0xb",
      "l1GasUsed": "0x697"
    },
    {
      "status": "0x1",
      "cumulativeGasUsed": "0x7e2103",
      "logs": [],
      "logsBloom": "0x00000000000000000000000000000000000000000000000000000000000000000000000000000000000000000000000000000000000000000000000000000000000000000000000000000000000000000000000000000000000000000000000000000000000000000000000000000000000000000000000000000000000000000000000000000000000000000000000000000000000000000000000000000000000000000000000000000000000000000000000000000000000000000000000000000000000000000000000000000000000000000000000000000000000000000000000000000000000000000000000000000000000000000000000000000000",
      "type": "0x2",
      "transactionHash": "0x5c806d77f10d59e28fff5b4b0a4e34cf1d614c9d269d41e986bf4b6aad18ba22",
      "transactionIndex": "0xd",
      "blockHash": "0x4cc9e2c32c4f4d71c09d546deeba7cde824709887fe5a8c323e184d06775dd87",
      "blockNumber": "0x200c681",
      "gasUsed": "0xcd02",
      "effectiveGasPrice": "0xf4288",
      "from": "0x87350ccfe163cbd6172c6ff3d39dbc93b01f9f46",
      "to": "0xb8090bb54d472105af98384f0159572c7ffea813",
      "contractAddress": null,
      "l1BaseFeeScalar": "0x44d",
      "l1BlobBaseFee": "0x1",
      "l1BlobBaseFeeScalar": "0xa118b",
      "l1Fee": "0x55",
      "l1GasPrice": "0xb",
      "l1GasUsed": "0x640"
    }
  ],
  "libraries": [],
  "pending": [],
  "returns": {},
  "timestamp": 1762978786373,
  "chain": 84532,
  "commit": "902cf36f"
}