{
  "transactions": [
    {
      "hash": "0x086433f174256befedc49df14d4a4a99d49d621a0bf53b83ff0b6bbea63a277d",
      "transactionType": "CALL",
      "contractName": null,
      "contractAddress": "0x3dd1a497846d060dce130b67b22e1f9dee18c051",
      "function": "permitDestinationChainId(uint256)",
      "arguments": [
        "43113"
      ],
      "transaction": {
        "from": "0x87350ccfe163cbd6172c6ff3d39dbc93b01f9f46",
        "to": "0x3dd1a497846d060dce130b67b22e1f9dee18c051",
        "gas": "0x118ae",
        "value": "0x0",
        "input": "0x44d1da8c000000000000000000000000000000000000000000000000000000000000a869",
        "nonce": "0x60",
        "chainId": "0x14a34"
      },
      "additionalContracts": [],
      "isFixedGasLimit": false
    },
    {
      "hash": "0xa7e7bfdd379d68db55f8f84b945514fd779e90e4c3c0d88ef16eb8a2c73cf4eb",
      "transactionType": "CALL",
      "contractName": null,
      "contractAddress": "0x3dd1a497846d060dce130b67b22e1f9dee18c051",
      "function": "setTokenMapping(uint256,address,address)",
      "arguments": [
        "43113",
        "0x908e1D85604E0e9e703d52D18f3f3f604Fe7Bb1b",
        "0x908e1D85604E0e9e703d52D18f3f3f604Fe7Bb1b"
      ],
      "transaction": {
        "from": "0x87350ccfe163cbd6172c6ff3d39dbc93b01f9f46",
        "to": "0x3dd1a497846d060dce130b67b22e1f9dee18c051",
        "gas": "0x24082",
        "value": "0x0",
        "input": "0x9695ec21000000000000000000000000000000000000000000000000000000000000a869000000000000000000000000908e1d85604e0e9e703d52d18f3f3f604fe7bb1b000000000000000000000000908e1d85604e0e9e703d52d18f3f3f604fe7bb1b",
        "nonce": "0x61",
        "chainId": "0x14a34"
      },
      "additionalContracts": [],
      "isFixedGasLimit": false
    }
  ],
  "receipts": [
    {
      "status": "0x1",
      "cumulativeGasUsed": "0x1ef430",
      "logs": [
        {
          "address": "0x3dd1a497846d060dce130b67b22e1f9dee18c051",
          "topics": [
            "0x047b2668ff544a8bbf30bd7ba3e75486baa01a04badf5386b6c3bc9a7da4d663"
          ],
          "data": "0x000000000000000000000000000000000000000000000000000000000000a869",
          "blockHash": "0xbaff9b1f08090830818b43e1d616e416124a4988cc7e2cf6d1b0f5cd0f1ea349",
          "blockNumber": "0x1d52707",
          "blockTimestamp": "0x68bdacee",
          "transactionHash": "0x086433f174256befedc49df14d4a4a99d49d621a0bf53b83ff0b6bbea63a277d",
          "transactionIndex": "0x7",
          "logIndex": "0x31",
          "removed": false
        }
      ],
      "logsBloom": "0x01000000000000000000000000000000000000000000000000000000000004000000000000000000000000000000000000000000000010000800000000000000000000000000000000000000000000000000000000000000000000000000000000000000000000000000000000000000000000000000000000000000000000000000000000000000000000000000000000000000000000000040000000000000000000000000000000000000000000000000000000000000000000000000000000000000000000000000000000000000000000000000000000000000000000000000000000000000000000000000000000040000000000000000000000000000",
      "type": "0x2",
      "transactionHash": "0x086433f174256befedc49df14d4a4a99d49d621a0bf53b83ff0b6bbea63a277d",
      "transactionIndex": "0x7",
      "blockHash": "0xbaff9b1f08090830818b43e1d616e416124a4988cc7e2cf6d1b0f5cd0f1ea349",
      "blockNumber": "0x1d52707",
      "gasUsed": "0xcb36",
      "effectiveGasPrice": "0xf427d",
      "from": "0x87350ccfe163cbd6172c6ff3d39dbc93b01f9f46",
      "to": "0x3dd1a497846d060dce130b67b22e1f9dee18c051",
      "contractAddress": null,
      "l1BaseFeeScalar": "0x44d",
      "l1BlobBaseFee": "0x180c43d08",
      "l1BlobBaseFeeScalar": "0xa118b",
      "l1Fee": "0x632ecc80e0",
      "l1GasPrice": "0x119cd4e",
      "l1GasUsed": "0x640"
    },
    {
      "status": "0x1",
      "cumulativeGasUsed": "0x213350",
      "logs": [
        {
          "address": "0x3dd1a497846d060dce130b67b22e1f9dee18c051",
          "topics": [
            "0x00f6b276aebfc163c3646a63a0286f845fdd2df56be91b61b62044067ce849a4"
          ],
          "data": "0x000000000000000000000000000000000000000000000000000000000000a869000000000000000000000000908e1d85604e0e9e703d52d18f3f3f604fe7bb1b000000000000000000000000908e1d85604e0e9e703d52d18f3f3f604fe7bb1b",
          "blockHash": "0xd53302fe0809663f91f3fc8c6044c7d270ba19300924baeabd198548fd4c8fc4",
          "blockNumber": "0x1d52707",
          "blockTimestamp": "0x68bdacee",
          "transactionHash": "0xa7e7bfdd379d68db55f8f84b945514fd779e90e4c3c0d88ef16eb8a2c73cf4eb",
          "transactionIndex": "0x9",
          "logIndex": "0x33",
          "removed": false
        }
      ],
      "logsBloom": "0x01000000000000000000000000000000000000000000000000000000000004000000000000000000000000000000000000000000000000000000000000080000000000000000000000000000000000000000000000000000000000000000000000000000000000000000000000000000000000000000000000000000000000000000000000000000000000000000000000000000000000000000000000000000000000000000000000000000000000000000000000000000004000000000000000000000000000000000000000000000000000000000000000000000000000000000000000000000000000000000000000040000000000000000000000001000",
      "type": "0x2",
      "transactionHash": "0xa7e7bfdd379d68db55f8f84b945514fd779e90e4c3c0d88ef16eb8a2c73cf4eb",
      "transactionIndex": "0x9",
      "blockHash": "0xd53302fe0809663f91f3fc8c6044c7d270ba19300924baeabd198548fd4c8fc4",
      "blockNumber": "0x1d52707",
      "gasUsed": "0x18a32",
      "effectiveGasPrice": "0xf427d",
      "from": "0x87350ccfe163cbd6172c6ff3d39dbc93b01f9f46",
      "to": "0x3dd1a497846d060dce130b67b22e1f9dee18c051",
      "contractAddress": null,
      "l1BaseFeeScalar": "0x44d",
      "l1BlobBaseFee": "0x180c43d08",
      "l1BlobBaseFeeScalar": "0xa118b",
      "l1Fee": "0x632ecc80e0",
      "l1GasPrice": "0x119cd4e",
      "l1GasUsed": "0x640"
    }
  ],
  "libraries": [],
  "pending": [],
  "returns": {},
  "timestamp": 1757261038,
  "chain": 84532,
  "commit": "6d0c1784"
}