{
  "transactions": [
    {
      "hash": "0x7cc013a6fbddf6a743388ca470c03b4d0150fc914924b9e6c55ccf3b648dddab",
      "transactionType": "CALL",
      "contractName": null,
      "contractAddress": "0x5635072cc1828ee221df07fcf8061c238e3db950",
      "function": "permitDestinationChainId(uint256)",
      "arguments": [
        "314159"
      ],
      "transaction": {
        "from": "0x87350ccfe163cbd6172c6ff3d39dbc93b01f9f46",
        "to": "0x5635072cc1828ee221df07fcf8061c238e3db950",
        "gas": "0x1195e",
        "value": "0x0",
        "input": "0x44d1da8c000000000000000000000000000000000000000000000000000000000004cb2f",
        "nonce": "0xc7",
        "chainId": "0x14a34"
      },
      "additionalContracts": [],
      "isFixedGasLimit": false
    },
    {
      "hash": "0x6c2a63ffc8a186019ec4a5a939e7c96954dedaefd302f0ab2a44259868b7deb8",
      "transactionType": "CALL",
      "contractName": null,
      "contractAddress": "0x5635072cc1828ee221df07fcf8061c238e3db950",
      "function": "setTokenMapping(uint256,address,address)",
      "arguments": [
        "314159",
        "0xb3042734b608a1B16e9e86B374A3f3e389B4cDf0",
        "0x9Eb392A6286138E5d59a40Da5398e567Ab3AAd7c"
      ],
      "transaction": {
        "from": "0x87350ccfe163cbd6172c6ff3d39dbc93b01f9f46",
        "to": "0x5635072cc1828ee221df07fcf8061c238e3db950",
        "gas": "0x224fc",
        "value": "0x0",
        "input": "0x9695ec21000000000000000000000000000000000000000000000000000000000004cb2f000000000000000000000000b3042734b608a1b16e9e86b374a3f3e389b4cdf00000000000000000000000009eb392a6286138e5d59a40da5398e567ab3aad7c",
        "nonce": "0xc8",
        "chainId": "0x14a34"
      },
      "additionalContracts": [],
      "isFixedGasLimit": false
    },
    {
      "hash": "0xbc67bfe95e4621e69a358078d783519767d5f90920b5bed22f34841819bd1ed6",
      "transactionType": "CALL",
      "contractName": null,
      "contractAddress": "0x5635072cc1828ee221df07fcf8061c238e3db950",
      "function": "setPermit2Relayer(address)",
      "arguments": [
        "0xD664C8948A100a99c98b0af5fE579AE3678b369b"
      ],
      "transaction": {
        "from": "0x87350ccfe163cbd6172c6ff3d39dbc93b01f9f46",
        "to": "0x5635072cc1828ee221df07fcf8061c238e3db950",
        "gas": "0x12143",
        "value": "0x0",
        "input": "0xe8ede753000000000000000000000000d664c8948a100a99c98b0af5fe579ae3678b369b",
        "nonce": "0xc9",
        "chainId": "0x14a34"
      },
      "additionalContracts": [],
      "isFixedGasLimit": false
    }
  ],
  "receipts": [
    {
      "status": "0x1",
      "cumulativeGasUsed": "0xfb740",
      "logs": [
        {
          "address": "0x5635072cc1828ee221df07fcf8061c238e3db950",
          "topics": [
            "0x047b2668ff544a8bbf30bd7ba3e75486baa01a04badf5386b6c3bc9a7da4d663"
          ],
          "data": "0x000000000000000000000000000000000000000000000000000000000004cb2f",
          "blockHash": "0x7fd12abc6ad01d090e5f51df343c39c50a9c2861e4f2a932ceb95d15a37e14d9",
          "blockNumber": "0x2014a5f",
          "blockTimestamp": "0x6915f39e",
          "transactionHash": "0x7cc013a6fbddf6a743388ca470c03b4d0150fc914924b9e6c55ccf3b648dddab",
          "transactionIndex": "0xd",
          "logIndex": "0xd",
          "removed": false
        }
      ],
      "logsBloom": "0x00000000000000000000000000000000000000000000000000000000000000000000000000000000000000000000000000000000000010000800000000000000000000000000000000000000000000000000000000000000000000000000400000000000000000000000000000000000000000000000000000004000000000000000000000000000000000000000000000000000000000000040000000000000000000000000000000000000000000000000000000000000000000000000000000000000000000000000000000000000000000000000000000000000000000000000800000000000000000000000000000000000000000000000000000000000",
      "type": "0x2",
      "transactionHash": "0x7cc013a6fbddf6a743388ca470c03b4d0150fc914924b9e6c55ccf3b648dddab",
      "transactionIndex": "0xd",
      "blockHash": "0x7fd12abc6ad01d090e5f51df343c39c50a9c2861e4f2a932ceb95d15a37e14d9",
      "blockNumber": "0x2014a5f",
      "gasUsed": "0xcbb5",
      "effectiveGasPrice": "0xf427b",
      "from": "0x87350ccfe163cbd6172c6ff3d39dbc93b01f9f46",
      "to": "0x5635072cc1828ee221df07fcf8061c238e3db950",
      "contractAddress": null,
      "l1BaseFeeScalar": "0x44d",
      "l1BlobBaseFee": "0x1",
      "l1BlobBaseFeeScalar": "0xa118b",
      "l1Fee": "0x64",
      "l1GasPrice": "0xd",
      "l1GasUsed": "0x640"
    },
    {
      "status": "0x1",
      "cumulativeGasUsed": "0x1144b5",
      "logs": [
        {
          "address": "0x5635072cc1828ee221df07fcf8061c238e3db950",
          "topics": [
            "0x00f6b276aebfc163c3646a63a0286f845fdd2df56be91b61b62044067ce849a4"
          ],
          "data": "0x000000000000000000000000000000000000000000000000000000000004cb2f000000000000000000000000b3042734b608a1b16e9e86b374a3f3e389b4cdf00000000000000000000000009eb392a6286138e5d59a40da5398e567ab3aad7c",
          "blockHash": "0x7fd12abc6ad01d090e5f51df343c39c50a9c2861e4f2a932ceb95d15a37e14d9",
          "blockNumber": "0x2014a5f",
          "blockTimestamp": "0x6915f39e",
          "transactionHash": "0x6c2a63ffc8a186019ec4a5a939e7c96954dedaefd302f0ab2a44259868b7deb8",
          "transactionIndex": "0xe",
          "logIndex": "0xe",
          "removed": false
        }
      ],
      "logsBloom": "0x00000000000000000000000000000000000000000000000000000000000000000000000000000000000000000000000000000000000000000000000000080000000000000000000000000000000000000000000000000000000000000000400000000000000000000000000000000000000000000000000000004000000000000000000000000000000000000000000000000000000000000000000000000000000000000000000000000000000000000000000000000000004000000000000000000000000000000000000000000000000000000000000000000000000000000000800000000000000000000000000000000000000000000000000000001000",
      "type": "0x2",
      "transactionHash": "0x6c2a63ffc8a186019ec4a5a939e7c96954dedaefd302f0ab2a44259868b7deb8",
      "transactionIndex": "0xe",
      "blockHash": "0x7fd12abc6ad01d090e5f51df343c39c50a9c2861e4f2a932ceb95d15a37e14d9",
      "blockNumber": "0x2014a5f",
      "gasUsed": "0x18d75",
      "effectiveGasPrice": "0xf427b",
      "from": "0x87350ccfe163cbd6172c6ff3d39dbc93b01f9f46",
      "to": "0x5635072cc1828ee221df07fcf8061c238e3db950",
      "contractAddress": null,
      "l1BaseFeeScalar": "0x44d",
      "l1BlobBaseFee": "0x1",
      "l1BlobBaseFeeScalar": "0xa118b",
      "l1Fee": "0x64",
      "l1GasPrice": "0xd",
      "l1GasUsed": "0x697"
    },
    {
      "status": "0x1",
      "cumulativeGasUsed": "0x121622",
      "logs": [
        {
          "address": "0x5635072cc1828ee221df07fcf8061c238e3db950",
          "topics": [
            "0xe85a6ec2afe29a301eeda921f161232f0288e22b7378ecbd84bf62b05d4b1a4c",
            "0x000000000000000000000000d664c8948a100a99c98b0af5fe579ae3678b369b"
          ],
          "data": "0x",
          "blockHash": "0x7fd12abc6ad01d090e5f51df343c39c50a9c2861e4f2a932ceb95d15a37e14d9",
          "blockNumber": "0x2014a5f",
          "blockTimestamp": "0x6915f39e",
          "transactionHash": "0xbc67bfe95e4621e69a358078d783519767d5f90920b5bed22f34841819bd1ed6",
          "transactionIndex": "0xf",
          "logIndex": "0xf",
          "removed": false
        }
      ],
      "logsBloom": "0x00000000000000000000800000000000000000000000000000000000000000000000000000000000000000000000000000000000200000000000000000000000000000000000000000000000000000000000000000000000000000000000400000000000000000000000000008000100000000000000000000004000000000000000000000000000000000000000800000000000800000000000000000000000000000000000000000000000000000000000000000000000000000000000000000000000000000000000000000000000000000000000000000000000000000000000800000000000000000000000000000000000000000000000000000000000",
      "type": "0x2",
      "transactionHash": "0xbc67bfe95e4621e69a358078d783519767d5f90920b5bed22f34841819bd1ed6",
      "transactionIndex": "0xf",
      "blockHash": "0x7fd12abc6ad01d090e5f51df343c39c50a9c2861e4f2a932ceb95d15a37e14d9",
      "blockNumber": "0x2014a5f",
      "gasUsed": "0xd16d",
      "effectiveGasPrice": "0xf427b",
      "from": "0x87350ccfe163cbd6172c6ff3d39dbc93b01f9f46",
      "to": "0x5635072cc1828ee221df07fcf8061c238e3db950",
      "contractAddress": null,
      "l1BaseFeeScalar": "0x44d",
      "l1BlobBaseFee": "0x1",
      "l1BlobBaseFeeScalar": "0xa118b",
      "l1Fee": "0x64",
      "l1GasPrice": "0xd",
      "l1GasUsed": "0x640"
    }
  ],
  "libraries": [],
  "pending": [],
  "returns": {},
  "timestamp": 1763046301891,
  "chain": 84532,
  "commit": "ae56eed0"
}