{
  "transactions": [
    {
      "hash": "0xd8aad18c654eff8241e3df449bc7a757b7cf2510f6533147b31e392738a2ca3d",
      "transactionType": "CALL",
      "contractName": null,
      "contractAddress": "0xee4b3b7ba7806a89cff4fe6c754dc5c06c930ee3",
      "function": "permitDestinationChainId(uint256)",
      "arguments": [
        "314159"
      ],
      "transaction": {
        "from": "0x87350ccfe163cbd6172c6ff3d39dbc93b01f9f46",
        "to": "0xee4b3b7ba7806a89cff4fe6c754dc5c06c930ee3",
        "gas": "0x11a44",
        "value": "0x0",
        "input": "0x44d1da8c000000000000000000000000000000000000000000000000000000000004cb2f",
        "nonce": "0xfa",
        "chainId": "0x14a34"
      },
      "additionalContracts": [],
      "isFixedGasLimit": false
    },
    {
      "hash": "0x497f03864ec93d89b6cad21a4399c87445d3a8f05f1006ea188d16c1dc01cc64",
      "transactionType": "CALL",
      "contractName": null,
      "contractAddress": "0xee4b3b7ba7806a89cff4fe6c754dc5c06c930ee3",
      "function": "setTokenMapping(uint256,address,address)",
      "arguments": [
        "314159",
        "0xb3042734b608a1B16e9e86B374A3f3e389B4cDf0",
        "0x9Eb392A6286138E5d59a40Da5398e567Ab3AAd7c"
      ],
      "transaction": {
        "from": "0x87350ccfe163cbd6172c6ff3d39dbc93b01f9f46",
        "to": "0xee4b3b7ba7806a89cff4fe6c754dc5c06c930ee3",
        "gas": "0x22672",
        "value": "0x0",
        "input": "0x9695ec21000000000000000000000000000000000000000000000000000000000004cb2f000000000000000000000000b3042734b608a1b16e9e86b374a3f3e389b4cdf00000000000000000000000009eb392a6286138e5d59a40da5398e567ab3aad7c",
        "nonce": "0xfb",
        "chainId": "0x14a34"
      },
      "additionalContracts": [],
      "isFixedGasLimit": false
    },
    {
      "hash": "0x9886b7c74b2b7a6919e0cd2b490876dbd52d6251a4d1379e1f1dcfe2071a7cd8",
      "transactionType": "CALL",
      "contractName": null,
      "contractAddress": "0xee4b3b7ba7806a89cff4fe6c754dc5c06c930ee3",
      "function": "setPermit2Relayer(address)",
      "arguments": [
        "0x1b8D77e9899f5b780Ec5a0e3445e732C4CED6b33"
      ],
      "transaction": {
        "from": "0x87350ccfe163cbd6172c6ff3d39dbc93b01f9f46",
        "to": "0xee4b3b7ba7806a89cff4fe6c754dc5c06c930ee3",
        "gas": "0xb709",
        "value": "0x0",
        "input": "0xe8ede7530000000000000000000000001b8d77e9899f5b780ec5a0e3445e732c4ced6b33",
        "nonce": "0xfc",
        "chainId": "0x14a34"
      },
      "additionalContracts": [],
      "isFixedGasLimit": false
    }
  ],
  "receipts": [
    {
      "status": "0x1",
      "cumulativeGasUsed": "0x28ce235",
      "logs": [
        {
          "address": "0xee4b3b7ba7806a89cff4fe6c754dc5c06c930ee3",
          "topics": [
            "0x047b2668ff544a8bbf30bd7ba3e75486baa01a04badf5386b6c3bc9a7da4d663"
          ],
          "data": "0x000000000000000000000000000000000000000000000000000000000004cb2f",
          "blockHash": "0x91dc62576c9cffa91c7f12132ae8d95a2460377e0c26fefbf525c556308c3d6e",
          "blockNumber": "0x20234a7",
          "blockTimestamp": "0x6917c82e",
          "transactionHash": "0xd8aad18c654eff8241e3df449bc7a757b7cf2510f6533147b31e392738a2ca3d",
          "transactionIndex": "0x1e",
          "logIndex": "0x27",
          "removed": false
        }
      ],
      "logsBloom": "0x00000000000000000000000000000000000000000000000000000000000000000000000000000000000000000000000000000000000010000800000000000000000000000000000000000000000000000000000000000000000000000000000000000000008000000000000000000000000000000000000000000000000000000000000000000000000000000000000000000000000000000040000000000000000000000000000000000000000000000000000000000000000004000000000000000000000000000000000000000000000000000000000000400000000000000000000000000000000000000000000000000000000000000000000000000000",
      "type": "0x2",
      "transactionHash": "0xd8aad18c654eff8241e3df449bc7a757b7cf2510f6533147b31e392738a2ca3d",
      "transactionIndex": "0x1e",
      "blockHash": "0x91dc62576c9cffa91c7f12132ae8d95a2460377e0c26fefbf525c556308c3d6e",
      "blockNumber": "0x20234a7",
      "gasUsed": "0xcc5c",
      "effectiveGasPrice": "0xf4281",
      "from": "0x87350ccfe163cbd6172c6ff3d39dbc93b01f9f46",
      "to": "0xee4b3b7ba7806a89cff4fe6c754dc5c06c930ee3",
      "contractAddress": null,
      "l1BaseFeeScalar": "0x44d",
      "l1BlobBaseFee": "0x1",
      "l1BlobBaseFeeScalar": "0xa118b",
      "l1Fee": "0x57",
      "l1GasPrice": "0xc",
      "l1GasUsed": "0x640"
    },
    {
      "status": "0x1",
      "cumulativeGasUsed": "0x28e70b9",
      "logs": [
        {
          "address": "0xee4b3b7ba7806a89cff4fe6c754dc5c06c930ee3",
          "topics": [
            "0x00f6b276aebfc163c3646a63a0286f845fdd2df56be91b61b62044067ce849a4"
          ],
          "data": "0x000000000000000000000000000000000000000000000000000000000004cb2f000000000000000000000000b3042734b608a1b16e9e86b374a3f3e389b4cdf00000000000000000000000009eb392a6286138e5d59a40da5398e567ab3aad7c",
          "blockHash": "0x91dc62576c9cffa91c7f12132ae8d95a2460377e0c26fefbf525c556308c3d6e",
          "blockNumber": "0x20234a7",
          "blockTimestamp": "0x6917c82e",
          "transactionHash": "0x497f03864ec93d89b6cad21a4399c87445d3a8f05f1006ea188d16c1dc01cc64",
          "transactionIndex": "0x1f",
          "logIndex": "0x28",
          "removed": false
        }
      ],
      "logsBloom": "0x00000000000000000000000000000000000000000000000000000000000000000000000000000000000000000000000000000000000000000000000000080000000000000000000000000000000000000000000000000000000000000000000000000000008000000000000000000000000000000000000000000000000000000000000000000000000000000000000000000000000000000000000000000000000000000000000000000000000000000000000000000000004004000000000000000000000000000000000000000000000000000000000000400000000000000000000000000000000000000000000000000000000000000000000000001000",
      "type": "0x2",
      "transactionHash": "0x497f03864ec93d89b6cad21a4399c87445d3a8f05f1006ea188d16c1dc01cc64",
      "transactionIndex": "0x1f",
      "blockHash": "0x91dc62576c9cffa91c7f12132ae8d95a2460377e0c26fefbf525c556308c3d6e",
      "blockNumber": "0x20234a7",
      "gasUsed": "0x18e84",
      "effectiveGasPrice": "0xf4281",
      "from": "0x87350ccfe163cbd6172c6ff3d39dbc93b01f9f46",
      "to": "0xee4b3b7ba7806a89cff4fe6c754dc5c06c930ee3",
      "contractAddress": null,
      "l1BaseFeeScalar": "0x44d",
      "l1BlobBaseFee": "0x1",
      "l1BlobBaseFeeScalar": "0xa118b",
      "l1Fee": "0x5b",
      "l1GasPrice": "0xc",
      "l1GasUsed": "0x697"
    },
    {
      "status": "0x1",
      "cumulativeGasUsed": "0x28ef53d",
      "logs": [
        {
          "address": "0xee4b3b7ba7806a89cff4fe6c754dc5c06c930ee3",
          "topics": [
            "0xe85a6ec2afe29a301eeda921f161232f0288e22b7378ecbd84bf62b05d4b1a4c",
            "0x0000000000000000000000001b8d77e9899f5b780ec5a0e3445e732c4ced6b33"
          ],
          "data": "0x",
          "blockHash": "0x91dc62576c9cffa91c7f12132ae8d95a2460377e0c26fefbf525c556308c3d6e",
          "blockNumber": "0x20234a7",
          "blockTimestamp": "0x6917c82e",
          "transactionHash": "0x9886b7c74b2b7a6919e0cd2b490876dbd52d6251a4d1379e1f1dcfe2071a7cd8",
          "transactionIndex": "0x20",
          "logIndex": "0x29",
          "removed": false
        }
      ],
      "logsBloom": "0x00000000000000000000800000000000000000000000000000000000000000000000020000000000000000000000000000000000000000000000000000000000000000000000000000000000000000000000000000000000000000000000000000000000008000000000000008000100000000000000000000000000000000000000000000000000000000000000000000000000000080000000000000000000000000000000000000000000000000000000000000000000000004000000000000000000000000000000000000000000000000000000000000400000000000000000000000000000000000002000000000000000000000000000000000000000",
      "type": "0x2",
      "transactionHash": "0x9886b7c74b2b7a6919e0cd2b490876dbd52d6251a4d1379e1f1dcfe2071a7cd8",
      "transactionIndex": "0x20",
      "blockHash": "0x91dc62576c9cffa91c7f12132ae8d95a2460377e0c26fefbf525c556308c3d6e",
      "blockNumber": "0x20234a7",
      "gasUsed": "0x8484",
      "effectiveGasPrice": "0xf4281",
      "from": "0x87350ccfe163cbd6172c6ff3d39dbc93b01f9f46",
      "to": "0xee4b3b7ba7806a89cff4fe6c754dc5c06c930ee3",
      "contractAddress": null,
      "l1BaseFeeScalar": "0x44d",
      "l1BlobBaseFee": "0x1",
      "l1BlobBaseFeeScalar": "0xa118b",
      "l1Fee": "0x57",
      "l1GasPrice": "0xc",
      "l1GasUsed": "0x640"
    }
  ],
  "libraries": [],
  "pending": [],
  "returns": {},
  "timestamp": 1763166253843,
  "chain": 84532,
  "commit": "79d08d67"
}