{
  "transactions": [
    {
      "hash": "0x832251dfe8854f7c2b7d43bd581e745ebbe26ebf2d6f85b0c736ec4d51fc4b1e",
      "transactionType": "CALL",
      "contractName": null,
      "contractAddress": "0xdff3f80a0ab7b91f15acaec16d0d4d1fce07b0dd",
      "function": "permitDestinationChainId(uint256)",
      "arguments": [
        "111111"
      ],
      "transaction": {
        "from": "0xa0ee7a142d267c1f36714e4a8f75612f20a79720",
        "to": "0xdff3f80a0ab7b91f15acaec16d0d4d1fce07b0dd",
        "gas": "0xfd38",
        "value": "0x0",
        "input": "0x44d1da8c000000000000000000000000000000000000000000000000000000000001b207",
        "nonce": "0x3",
        "chainId": "0x3640e"
      },
      "additionalContracts": [],
      "isFixedGasLimit": false
    },
    {
      "hash": "0xfff1f7b31a83dc07717ea8f2abb1f0d4ef53f642f8abfb0b85bf3fab0548a340",
      "transactionType": "CALL",
      "contractName": null,
      "contractAddress": "0xdff3f80a0ab7b91f15acaec16d0d4d1fce07b0dd",
      "function": "setTokenMapping(uint256,address,address)",
      "arguments": [
        "111111",
        "0xc0315C089CfFB0618bEdFdFE9D0457a2B4168140",
        "0xc0315C089CfFB0618bEdFdFE9D0457a2B4168140"
      ],
      "transaction": {
        "from": "0xa0ee7a142d267c1f36714e4a8f75612f20a79720",
        "to": "0xdff3f80a0ab7b91f15acaec16d0d4d1fce07b0dd",
        "gas": "0x11184",
        "value": "0x0",
        "input": "0x9695ec21000000000000000000000000000000000000000000000000000000000001b207000000000000000000000000c0315c089cffb0618bedfdfe9d0457a2b4168140000000000000000000000000c0315c089cffb0618bedfdfe9d0457a2b4168140",
        "nonce": "0x4",
        "chainId": "0x3640e"
      },
      "additionalContracts": [],
      "isFixedGasLimit": false
    }
  ],
  "receipts": [
    {
      "status": "0x1",
      "cumulativeGasUsed": "0xb754",
      "logs": [
        {
          "address": "0xdff3f80a0ab7b91f15acaec16d0d4d1fce07b0dd",
          "topics": [
            "0x047b2668ff544a8bbf30bd7ba3e75486baa01a04badf5386b6c3bc9a7da4d663"
          ],
          "data": "0x000000000000000000000000000000000000000000000000000000000001b207",
          "blockHash": "0xef027e65feec73855df92567e26104bf99a1aee8a3e897b5a5d39c7b05683a4d",
          "blockNumber": "0x3",
          "blockTimestamp": "0x6888a404",
          "transactionHash": "0x832251dfe8854f7c2b7d43bd581e745ebbe26ebf2d6f85b0c736ec4d51fc4b1e",
          "transactionIndex": "0x0",
          "logIndex": "0x0",
          "removed": false
        }
      ],
      "logsBloom": "0x00000000000000000000000000000000000000000000000000000000000000000000000000000000000000000000000000000000000010000800000000000000000000000000000000000000000000000000000000000000000000000000000000000000000000000000000000000000000000000000000000000000000000000000000000000000000000000000000000000000000000000040000000000000000000000000000000000000000080000000000000000000000000000000000000000000000000000000000000000000000000000000000000000000000000000000000000000000000000000000000000000400000000000100000000000000",
      "type": "0x2",
      "transactionHash": "0x832251dfe8854f7c2b7d43bd581e745ebbe26ebf2d6f85b0c736ec4d51fc4b1e",
      "transactionIndex": "0x0",
      "blockHash": "0xef027e65feec73855df92567e26104bf99a1aee8a3e897b5a5d39c7b05683a4d",
      "blockNumber": "0x3",
      "gasUsed": "0xb754",
      "effectiveGasPrice": "0x30cd7bad",
      "blobGasPrice": "0x1",
      "from": "0xa0ee7a142d267c1f36714e4a8f75612f20a79720",
      "to": "0xdff3f80a0ab7b91f15acaec16d0d4d1fce07b0dd",
      "contractAddress": null
    },
    {
      "status": "0x1",
      "cumulativeGasUsed": "0xc606",
      "logs": [
        {
          "address": "0xdff3f80a0ab7b91f15acaec16d0d4d1fce07b0dd",
          "topics": [
            "0xa9f869d70b1db119cda65f920b318209f1b3da0c65e25245575959bc7d112820"
          ],
          "data": "0x000000000000000000000000000000000000000000000000000000000001b207000000000000000000000000c0315c089cffb0618bedfdfe9d0457a2b4168140000000000000000000000000c0315c089cffb0618bedfdfe9d0457a2b4168140",
          "blockHash": "0x62438f718f3cff12a3765c588ac36890993a00508d699e3dfa9777c0715ecf79",
          "blockNumber": "0x4",
          "blockTimestamp": "0x6888a404",
          "transactionHash": "0xfff1f7b31a83dc07717ea8f2abb1f0d4ef53f642f8abfb0b85bf3fab0548a340",
          "transactionIndex": "0x0",
          "logIndex": "0x0",
          "removed": false
        }
      ],
      "logsBloom": "0x00000000000000000000000000000000000000001000000000000000000000000000000000000000000000000000000200000000000000000000000000000000000000000000000000000000000000000000000000000000000000000000000000000000000000000000000000000000000000000000000000000000000000000000000000000000000000000000000000000000000000000000000000000000000000000000000000000000000080000000000000000000000000000000000000000000000000000000000000000000000000000000000000000000000000000000000000000000008000000000000000000400000000000100000000000000",
      "type": "0x2",
      "transactionHash": "0xfff1f7b31a83dc07717ea8f2abb1f0d4ef53f642f8abfb0b85bf3fab0548a340",
      "transactionIndex": "0x0",
      "blockHash": "0x62438f718f3cff12a3765c588ac36890993a00508d699e3dfa9777c0715ecf79",
      "blockNumber": "0x4",
      "gasUsed": "0xc606",
      "effectiveGasPrice": "0x2ab8af16",
      "blobGasPrice": "0x1",
      "from": "0xa0ee7a142d267c1f36714e4a8f75612f20a79720",
      "to": "0xdff3f80a0ab7b91f15acaec16d0d4d1fce07b0dd",
      "contractAddress": null
    }
  ],
  "libraries": [],
  "pending": [],
  "returns": {},
  "timestamp": 1753785348,
  "chain": 222222,
  "commit": "8a4be131"
}