{
  "transactions": [
    {
      "hash": "0x3efdd75ba3653dad8775cf6b654cb3718dd5e1ff80f062d974042b5e5700b05b",
      "transactionType": "CALL",
      "contractName": null,
      "contractAddress": "0x3dd1a497846d060dce130b67b22e1f9dee18c051",
      "function": "permitDestinationChainId(uint256)",
      "arguments": [
        "84532"
      ],
      "transaction": {
        "from": "0x87350ccfe163cbd6172c6ff3d39dbc93b01f9f46",
        "to": "0x3dd1a497846d060dce130b67b22e1f9dee18c051",
        "gas": "0x12943",
        "value": "0x0",
        "input": "0x44d1da8c0000000000000000000000000000000000000000000000000000000000014a34",
        "nonce": "0x34",
        "chainId": "0xa869"
      },
      "additionalContracts": [],
      "isFixedGasLimit": false
    },
    {
      "hash": "0xc0d632fd5506729bb9f597193ff7cecb92e3ffeb6bea8cafb849187c54219ed7",
      "transactionType": "CALL",
      "contractName": null,
      "contractAddress": "0x3dd1a497846d060dce130b67b22e1f9dee18c051",
      "function": "setTokenMapping(uint256,address,address)",
      "arguments": [
        "84532",
        "0x908e1D85604E0e9e703d52D18f3f3f604Fe7Bb1b",
        "0x908e1D85604E0e9e703d52D18f3f3f604Fe7Bb1b"
      ],
      "transaction": {
        "from": "0x87350ccfe163cbd6172c6ff3d39dbc93b01f9f46",
        "to": "0x3dd1a497846d060dce130b67b22e1f9dee18c051",
        "gas": "0x2208a",
        "value": "0x0",
        "input": "0x9695ec210000000000000000000000000000000000000000000000000000000000014a34000000000000000000000000908e1d85604e0e9e703d52d18f3f3f604fe7bb1b000000000000000000000000908e1d85604e0e9e703d52d18f3f3f604fe7bb1b",
        "nonce": "0x35",
        "chainId": "0xa869"
      },
      "additionalContracts": [],
      "isFixedGasLimit": false
    }
  ],
  "receipts": [
    {
      "status": "0x1",
      "cumulativeGasUsed": "0xcb42",
      "logs": [
        {
          "address": "0x3dd1a497846d060dce130b67b22e1f9dee18c051",
          "topics": [
            "0x047b2668ff544a8bbf30bd7ba3e75486baa01a04badf5386b6c3bc9a7da4d663"
          ],
          "data": "0x0000000000000000000000000000000000000000000000000000000000014a34",
          "blockHash": "0x8a8e91396fb623cc0e177f58f1490c7294e72765d34fe7f4932e45eb6a37411e",
          "blockNumber": "0x2baa6c7",
          "transactionHash": "0x3efdd75ba3653dad8775cf6b654cb3718dd5e1ff80f062d974042b5e5700b05b",
          "transactionIndex": "0x0",
          "logIndex": "0x0",
          "removed": false
        }
      ],
      "logsBloom": "0x01000000000000000000000000000000000000000000000000000000000004000000000000000000000000000000000000000000000010000800000000000000000000000000000000000000000000000000000000000000000000000000000000000000000000000000000000000000000000000000000000000000000000000000000000000000000000000000000000000000000000000040000000000000000000000000000000000000000000000000000000000000000000000000000000000000000000000000000000000000000000000000000000000000000000000000000000000000000000000000000000040000000000000000000000000000",
      "type": "0x2",
      "transactionHash": "0x3efdd75ba3653dad8775cf6b654cb3718dd5e1ff80f062d974042b5e5700b05b",
      "transactionIndex": "0x0",
      "blockHash": "0x8a8e91396fb623cc0e177f58f1490c7294e72765d34fe7f4932e45eb6a37411e",
      "blockNumber": "0x2baa6c7",
      "gasUsed": "0xcb42",
      "effectiveGasPrice": "0x4a817c800",
      "from": "0x87350ccfe163cbd6172c6ff3d39dbc93b01f9f46",
      "to": "0x3dd1a497846d060dce130b67b22e1f9dee18c051",
      "contractAddress": null
    },
    {
      "status": "0x1",
      "cumulativeGasUsed": "0x25580",
      "logs": [
        {
          "address": "0x3dd1a497846d060dce130b67b22e1f9dee18c051",
          "topics": [
            "0x00f6b276aebfc163c3646a63a0286f845fdd2df56be91b61b62044067ce849a4"
          ],
          "data": "0x0000000000000000000000000000000000000000000000000000000000014a34000000000000000000000000908e1d85604e0e9e703d52d18f3f3f604fe7bb1b000000000000000000000000908e1d85604e0e9e703d52d18f3f3f604fe7bb1b",
          "blockHash": "0x8a8e91396fb623cc0e177f58f1490c7294e72765d34fe7f4932e45eb6a37411e",
          "blockNumber": "0x2baa6c7",
          "transactionHash": "0xc0d632fd5506729bb9f597193ff7cecb92e3ffeb6bea8cafb849187c54219ed7",
          "transactionIndex": "0x1",
          "logIndex": "0x1",
          "removed": false
        }
      ],
      "logsBloom": "0x01000000000000000000000000000000000000000000000000000000000004000000000000000000000000000000000000000000000000000000000000080000000000000000000000000000000000000000000000000000000000000000000000000000000000000000000000000000000000000000000000000000000000000000000000000000000000000000000000000000000000000000000000000000000000000000000000000000000000000000000000000000004000000000000000000000000000000000000000000000000000000000000000000000000000000000000000000000000000000000000000040000000000000000000000001000",
      "type": "0x2",
      "transactionHash": "0xc0d632fd5506729bb9f597193ff7cecb92e3ffeb6bea8cafb849187c54219ed7",
      "transactionIndex": "0x1",
      "blockHash": "0x8a8e91396fb623cc0e177f58f1490c7294e72765d34fe7f4932e45eb6a37411e",
      "blockNumber": "0x2baa6c7",
      "gasUsed": "0x18a3e",
      "effectiveGasPrice": "0x4a817c800",
      "from": "0x87350ccfe163cbd6172c6ff3d39dbc93b01f9f46",
      "to": "0x3dd1a497846d060dce130b67b22e1f9dee18c051",
      "contractAddress": null
    }
  ],
  "libraries": [],
  "pending": [],
  "returns": {},
  "timestamp": 1757260851,
  "chain": 43113,
  "commit": "6d0c1784"
}