{
  "transactions": [
    {
      "hash": null,
      "transactionType": "CALL",
      "contractName": null,
      "contractAddress": "0x16323707e61d20a39aae5ab64808e480b91658ab",
      "function": "grantRole(bytes32,address)",
      "arguments": [
        "0xa49807205ce4d355092ef5a8a18f56e8913cf4a201fbe287825b095693c21775",
        "0xFcb755f48cAdb0b92E8c1315150Ce2Ac91C9C336"
      ],
      "transaction": {
        "from": "0x87350ccfe163cbd6172c6ff3d39dbc93b01f9f46",
        "to": "0x16323707e61d20a39aae5ab64808e480b91658ab",
        "gas": "0x23e3e",
        "value": "0x0",
        "input": "0x2f2ff15da49807205ce4d355092ef5a8a18f56e8913cf4a201fbe287825b095693c21775000000000000000000000000fcb755f48cadb0b92e8c1315150ce2ac91c9c336",
        "nonce": "0x33",
        "chainId": "0xa"
      },
      "additionalContracts": [],
      "isFixedGasLimit": false
    },
    {
      "hash": null,
      "transactionType": "CALL",
      "contractName": null,
      "contractAddress": "0x16323707e61d20a39aae5ab64808e480b91658ab",
      "function": "grantRole(bytes32,address)",
      "arguments": [
        "0x0000000000000000000000000000000000000000000000000000000000000000",
        "0xFcb755f48cAdb0b92E8c1315150Ce2Ac91C9C336"
      ],
      "transaction": {
        "from": "0x87350ccfe163cbd6172c6ff3d39dbc93b01f9f46",
        "to": "0x16323707e61d20a39aae5ab64808e480b91658ab",
        "gas": "0x23c2c",
        "value": "0x0",
        "input": "0x2f2ff15d0000000000000000000000000000000000000000000000000000000000000000000000000000000000000000fcb755f48cadb0b92e8c1315150ce2ac91c9c336",
        "nonce": "0x34",
        "chainId": "0xa"
      },
      "additionalContracts": [],
      "isFixedGasLimit": false
    }
  ],
  "receipts": [],
  "libraries": [],
  "pending": [],
  "returns": {},
  "timestamp": 1765471158601,
  "chain": 10,
  "commit": "8b570dad"
}