{
  "transactions": [
    {
      "hash": "0x6265db929c10003766f33e7e0fa674691105a761187b30ce255d2e9c2a506adf",
      "transactionType": "CALL",
      "contractName": null,
      "contractAddress": "0x1b37530129e84cc0c4db6c00c61bec06b9691b8c",
      "function": "grantRole(bytes32,address)",
      "arguments": [
        "0xa49807205ce4d355092ef5a8a18f56e8913cf4a201fbe287825b095693c21775",
        "0xFcb755f48cAdb0b92E8c1315150Ce2Ac91C9C336"
      ],
      "transaction": {
        "from": "0x87350ccfe163cbd6172c6ff3d39dbc93b01f9f46",
        "to": "0x1b37530129e84cc0c4db6c00c61bec06b9691b8c",
        "gas": "0x6bfb4f8",
        "value": "0x0",
        "input": "0x2f2ff15da49807205ce4d355092ef5a8a18f56e8913cf4a201fbe287825b095693c21775000000000000000000000000fcb755f48cadb0b92e8c1315150ce2ac91c9c336",
        "nonce": "0x142",
        "chainId": "0x4cb2f"
      },
      "additionalContracts": [],
      "isFixedGasLimit": false
    },
    {
      "hash": "0x3fd8f4d2a5aaf2e36527bda5518e93239598e272ffee358982866631fc7ef58b",
      "transactionType": "CALL",
      "contractName": null,
      "contractAddress": "0x1b37530129e84cc0c4db6c00c61bec06b9691b8c",
      "function": "grantRole(bytes32,address)",
      "arguments": [
        "0x0000000000000000000000000000000000000000000000000000000000000000",
        "0xFcb755f48cAdb0b92E8c1315150Ce2Ac91C9C336"
      ],
      "transaction": {
        "from": "0x87350ccfe163cbd6172c6ff3d39dbc93b01f9f46",
        "to": "0x1b37530129e84cc0c4db6c00c61bec06b9691b8c",
        "gas": "0x6b97b38",
        "value": "0x0",
        "input": "0x2f2ff15d0000000000000000000000000000000000000000000000000000000000000000000000000000000000000000fcb755f48cadb0b92e8c1315150ce2ac91c9c336",
        "nonce": "0x143",
        "chainId": "0x4cb2f"
      },
      "additionalContracts": [],
      "isFixedGasLimit": false
    }
  ],
  "receipts": [
    {
      "status": "0x1",
      "cumulativeGasUsed": "0x0",
      "logs": [
        {
          "address": "0x1b37530129e84cc0c4db6c00c61bec06b9691b8c",
          "topics": [
            "0x2f8788117e7eff1d82e926ec794901d17c78024a50270940304540a733656f0d",
            "0xa49807205ce4d355092ef5a8a18f56e8913cf4a201fbe287825b095693c21775",
            "0x000000000000000000000000fcb755f48cadb0b92e8c1315150ce2ac91c9c336",
            "0x00000000000000000000000087350ccfe163cbd6172c6ff3d39dbc93b01f9f46"
          ],
          "data": "0x",
          "blockHash": "0x8a1a725a080186457f70ed0d87eee4ea8812f8f89db2b66d5b2fac239d2cdba7",
          "blockNumber": "0x31eb35",
          "transactionHash": "0x6265db929c10003766f33e7e0fa674691105a761187b30ce255d2e9c2a506adf",
          "transactionIndex": "0x17",
          "logIndex": "0x3f",
          "removed": false
        }
      ],
      "logsBloom": "0x00000004000400000000000000000000000000000400000000000000000000000000000000000400000000000000000000000000000000000000000000000000000000000000010000000000000000000000000020000000000000000000000000000100000001000000000000000000000000000000000800000000000000000000000000000000000000000000004000000080000000000080000000000000000000000000000000000000000000000000000000000000001000000000000000000000000000000000000000000000000100000000000100000000000000000000000000000000000000000000000000000000000000000000000000000000",
      "type": "0x2",
      "transactionHash": "0x6265db929c10003766f33e7e0fa674691105a761187b30ce255d2e9c2a506adf",
      "transactionIndex": "0x17",
      "blockHash": "0x8a1a725a080186457f70ed0d87eee4ea8812f8f89db2b66d5b2fac239d2cdba7",
      "blockNumber": "0x31eb35",
      "gasUsed": "0x1a96dfb",
      "effectiveGasPrice": "0xc3b7a",
      "from": "0x87350ccfe163cbd6172c6ff3d39dbc93b01f9f46",
      "to": "0x1b37530129e84cc0c4db6c00c61bec06b9691b8c",
      "contractAddress": null,
      "root": "0x0000000000000000000000000000000000000000000000000000000000000000"
    },
    {
      "status": "0x1",
      "cumulativeGasUsed": "0x0",
      "logs": [
        {
          "address": "0x1b37530129e84cc0c4db6c00c61bec06b9691b8c",
          "topics": [
            "0x2f8788117e7eff1d82e926ec794901d17c78024a50270940304540a733656f0d",
            "0x0000000000000000000000000000000000000000000000000000000000000000",
            "0x000000000000000000000000fcb755f48cadb0b92e8c1315150ce2ac91c9c336",
            "0x00000000000000000000000087350ccfe163cbd6172c6ff3d39dbc93b01f9f46"
          ],
          "data": "0x",
          "blockHash": "0x8a1a725a080186457f70ed0d87eee4ea8812f8f89db2b66d5b2fac239d2cdba7",
          "blockNumber": "0x31eb35",
          "transactionHash": "0x3fd8f4d2a5aaf2e36527bda5518e93239598e272ffee358982866631fc7ef58b",
          "transactionIndex": "0x18",
          "logIndex": "0x40",
          "removed": false
        }
      ],
      "logsBloom": "0x00000004000400000000000000000000000000000400000000000000000000000000000000000400000000000000000000000000000000000000000000000000000000000000010000000000000000000000000000000000000000000000000000000100020001000000000000000800000000000000000000000000000000000000000000000000000000000000000000000080000000000080000000000000000000000000000000000000000000000000000000000000001000000000000000000000000000000000000000000000000100000000000100000000000020000000000000000000000000000000000000000000000000000000000000000000",
      "type": "0x2",
      "transactionHash": "0x3fd8f4d2a5aaf2e36527bda5518e93239598e272ffee358982866631fc7ef58b",
      "transactionIndex": "0x18",
      "blockHash": "0x8a1a725a080186457f70ed0d87eee4ea8812f8f89db2b66d5b2fac239d2cdba7",
      "blockNumber": "0x31eb35",
      "gasUsed": "0x171b618",
      "effectiveGasPrice": "0xe066e",
      "from": "0x87350ccfe163cbd6172c6ff3d39dbc93b01f9f46",
      "to": "0x1b37530129e84cc0c4db6c00c61bec06b9691b8c",
      "contractAddress": null,
      "root": "0x0000000000000000000000000000000000000000000000000000000000000000"
    }
  ],
  "libraries": [],
  "pending": [],
  "returns": {},
  "timestamp": 1765470720803,
  "chain": 314159,
  "commit": "8b570dad"
}