{
  "transactions": [
    {
      "hash": "0xf8471694aa0023be4931151f8f2b012c611cbdcc5a434334435c9680b032a95f",
      "transactionType": "CALL",
      "contractName": null,
      "contractAddress": "0xbcb32159242629d859b0bfc7a55f4a91b2b3d53f",
      "function": "permitDestinationChainId(uint256)",
      "arguments": [
        "84532"
      ],
      "transaction": {
        "from": "0x87350ccfe163cbd6172c6ff3d39dbc93b01f9f46",
        "to": "0xbcb32159242629d859b0bfc7a55f4a91b2b3d53f",
        "gas": "0x34d7580",
        "value": "0x0",
        "input": "0x44d1da8c0000000000000000000000000000000000000000000000000000000000014a34",
        "nonce": "0x9d",
        "chainId": "0x4cb2f"
      },
      "additionalContracts": [],
      "isFixedGasLimit": false
    },
    {
      "hash": "0xde5fcebd11506fc6465e654459a2839a7c79474b3b800961dd7b79e4ed29bcd8",
      "transactionType": "CALL",
      "contractName": null,
      "contractAddress": "0xbcb32159242629d859b0bfc7a55f4a91b2b3d53f",
      "function": "setTokenMapping(uint256,address,address)",
      "arguments": [
        "84532",
        "0x7FA069208b80c76467420721FAD3a770A88e117A",
        "0xb3042734b608a1B16e9e86B374A3f3e389B4cDf0"
      ],
      "transaction": {
        "from": "0x87350ccfe163cbd6172c6ff3d39dbc93b01f9f46",
        "to": "0xbcb32159242629d859b0bfc7a55f4a91b2b3d53f",
        "gas": "0x67198e0",
        "value": "0x0",
        "input": "0x9695ec210000000000000000000000000000000000000000000000000000000000014a340000000000000000000000007fa069208b80c76467420721fad3a770a88e117a000000000000000000000000b3042734b608a1b16e9e86b374a3f3e389b4cdf0",
        "nonce": "0x9e",
        "chainId": "0x4cb2f"
      },
      "additionalContracts": [],
      "isFixedGasLimit": false
    },
    {
      "hash": "0x80fb8031faf9abbc1e8d3a5ee90be5019c37673c81bebdbce5d14089fd511fae",
      "transactionType": "CALL",
      "contractName": null,
      "contractAddress": "0xbcb32159242629d859b0bfc7a55f4a91b2b3d53f",
      "function": "setPermit2Relayer(address)",
      "arguments": [
        "0xBFC73dC1ae4E5392c7bb99fa9A796bA9498e3b03"
      ],
      "transaction": {
        "from": "0x87350ccfe163cbd6172c6ff3d39dbc93b01f9f46",
        "to": "0xbcb32159242629d859b0bfc7a55f4a91b2b3d53f",
        "gas": "0x384e8d0",
        "value": "0x0",
        "input": "0xe8ede753000000000000000000000000bfc73dc1ae4e5392c7bb99fa9a796ba9498e3b03",
        "nonce": "0x9f",
        "chainId": "0x4cb2f"
      },
      "additionalContracts": [],
      "isFixedGasLimit": false
    }
  ],
  "receipts": [
    {
      "status": "0x1",
      "cumulativeGasUsed": "0x0",
      "logs": [
        {
          "address": "0xbcb32159242629d859b0bfc7a55f4a91b2b3d53f",
          "topics": [
            "0x047b2668ff544a8bbf30bd7ba3e75486baa01a04badf5386b6c3bc9a7da4d663"
          ],
          "data": "0x0000000000000000000000000000000000000000000000000000000000014a34",
          "blockHash": "0x00025e1ff33e364c137c87a4815640c074090b48265029811646c43e2547b945",
          "blockNumber": "0x30a6b6",
          "transactionHash": "0xf8471694aa0023be4931151f8f2b012c611cbdcc5a434334435c9680b032a95f",
          "transactionIndex": "0x14",
          "logIndex": "0x32",
          "removed": false
        }
      ],
      "logsBloom": "0x00000008000000000000000000000000000000000000000000000000000000000000000000000000000000000000000000000004000010000800000000000000000000000000000000000000000000000000000000000000000000000000000000000000000000000000000000000000000000000000000000000000000000000000000000000000000000000000000000000000000000000040000000000000000000000000000000000000000000000000000000000000000000000000000000000000000000000000000000000000000000000000000000000000000000000000000000010000000000000000000000000000000000000000000000000000",
      "type": "0x2",
      "transactionHash": "0xf8471694aa0023be4931151f8f2b012c611cbdcc5a434334435c9680b032a95f",
      "transactionIndex": "0x14",
      "blockHash": "0x00025e1ff33e364c137c87a4815640c074090b48265029811646c43e2547b945",
      "blockNumber": "0x30a6b6",
      "gasUsed": "0xb25d0c",
      "effectiveGasPrice": "0x7650e",
      "from": "0x87350ccfe163cbd6172c6ff3d39dbc93b01f9f46",
      "to": "0xbcb32159242629d859b0bfc7a55f4a91b2b3d53f",
      "contractAddress": null,
      "root": "0x0000000000000000000000000000000000000000000000000000000000000000"
    },
    {
      "status": "0x1",
      "cumulativeGasUsed": "0x0",
      "logs": [
        {
          "address": "0xbcb32159242629d859b0bfc7a55f4a91b2b3d53f",
          "topics": [
            "0x00f6b276aebfc163c3646a63a0286f845fdd2df56be91b61b62044067ce849a4"
          ],
          "data": "0x0000000000000000000000000000000000000000000000000000000000014a340000000000000000000000007fa069208b80c76467420721fad3a770a88e117a000000000000000000000000b3042734b608a1b16e9e86b374a3f3e389b4cdf0",
          "blockHash": "0x00025e1ff33e364c137c87a4815640c074090b48265029811646c43e2547b945",
          "blockNumber": "0x30a6b6",
          "transactionHash": "0xde5fcebd11506fc6465e654459a2839a7c79474b3b800961dd7b79e4ed29bcd8",
          "transactionIndex": "0x15",
          "logIndex": "0x33",
          "removed": false
        }
      ],
      "logsBloom": "0x00000008000000000000000000000000000000000000000000000000000000000000000000000000000000000000000000000004000000000000000000080000000000000000000000000000000000000000000000000000000000000000000000000000000000000000000000000000000000000000000000000000000000000000000000000000000000000000000000000000000000000000000000000000000000000000000000000000000000000000000000000000004000000000000000000000000000000000000000000000000000000000000000000000000000000000000000010000000000000000000000000000000000000000000000001000",
      "type": "0x2",
      "transactionHash": "0xde5fcebd11506fc6465e654459a2839a7c79474b3b800961dd7b79e4ed29bcd8",
      "transactionIndex": "0x15",
      "blockHash": "0x00025e1ff33e364c137c87a4815640c074090b48265029811646c43e2547b945",
      "blockNumber": "0x30a6b6",
      "gasUsed": "0xce5a7d",
      "effectiveGasPrice": "0xc7896",
      "from": "0x87350ccfe163cbd6172c6ff3d39dbc93b01f9f46",
      "to": "0xbcb32159242629d859b0bfc7a55f4a91b2b3d53f",
      "contractAddress": null,
      "root": "0x0000000000000000000000000000000000000000000000000000000000000000"
    },
    {
      "status": "0x1",
      "cumulativeGasUsed": "0x0",
      "logs": [],
      "logsBloom": "0x00000000000000000000000000000000000000000000000000000000000000000000000000000000000000000000000000000000000000000000000000000000000000000000000000000000000000000000000000000000000000000000000000000000000000000000000000000000000000000000000000000000000000000000000000000000000000000000000000000000000000000000000000000000000000000000000000000000000000000000000000000000000000000000000000000000000000000000000000000000000000000000000000000000000000000000000000000000000000000000000000000000000000000000000000000000",
      "type": "0x2",
      "transactionHash": "0x80fb8031faf9abbc1e8d3a5ee90be5019c37673c81bebdbce5d14089fd511fae",
      "transactionIndex": "0x16",
      "blockHash": "0x00025e1ff33e364c137c87a4815640c074090b48265029811646c43e2547b945",
      "blockNumber": "0x30a6b6",
      "gasUsed": "0xe4bd58",
      "effectiveGasPrice": "0x624f4",
      "from": "0x87350ccfe163cbd6172c6ff3d39dbc93b01f9f46",
      "to": "0xbcb32159242629d859b0bfc7a55f4a91b2b3d53f",
      "contractAddress": null,
      "root": "0x0000000000000000000000000000000000000000000000000000000000000000"
    }
  ],
  "libraries": [],
  "pending": [],
  "returns": {},
  "timestamp": 1762978590799,
  "chain": 314159,
  "commit": "902cf36f"
}