{
  "transactions": [
    {
      "hash": "0x9da2f0a08d332a42f55e4ae60e87be47a99f34d4f11a3ca66572b37f8bb1fdac",
      "transactionType": "CALL",
      "contractName": null,
      "contractAddress": "0x8765aaec740dc8842fce190ecab5f6b1c160023c",
      "function": "permitDestinationChainId(uint256)",
      "arguments": [
        "84532"
      ],
      "transaction": {
        "from": "0x87350ccfe163cbd6172c6ff3d39dbc93b01f9f46",
        "to": "0x8765aaec740dc8842fce190ecab5f6b1c160023c",
        "gas": "0x35028e8",
        "value": "0x0",
        "input": "0x44d1da8c0000000000000000000000000000000000000000000000000000000000014a34",
        "nonce": "0x128",
        "chainId": "0x4cb2f"
      },
      "additionalContracts": [],
      "isFixedGasLimit": false
    },
    {
      "hash": "0x038d07d652d32ba1cd5711741b2a53209fef4b5c0f5e1299f9bbec68549f1648",
      "transactionType": "CALL",
      "contractName": null,
      "contractAddress": "0x8765aaec740dc8842fce190ecab5f6b1c160023c",
      "function": "setTokenMapping(uint256,address,address)",
      "arguments": [
        "84532",
        "0x9Eb392A6286138E5d59a40Da5398e567Ab3AAd7c",
        "0xb3042734b608a1B16e9e86B374A3f3e389B4cDf0"
      ],
      "transaction": {
        "from": "0x87350ccfe163cbd6172c6ff3d39dbc93b01f9f46",
        "to": "0x8765aaec740dc8842fce190ecab5f6b1c160023c",
        "gas": "0x675fde0",
        "value": "0x0",
        "input": "0x9695ec210000000000000000000000000000000000000000000000000000000000014a340000000000000000000000009eb392a6286138e5d59a40da5398e567ab3aad7c000000000000000000000000b3042734b608a1b16e9e86b374a3f3e389b4cdf0",
        "nonce": "0x129",
        "chainId": "0x4cb2f"
      },
      "additionalContracts": [],
      "isFixedGasLimit": false
    },
    {
      "hash": "0xf0aa5dcd07270247e01a16c4d1f8138cd175d2aeeb622a712f11ef2a70d8a105",
      "transactionType": "CALL",
      "contractName": null,
      "contractAddress": "0x8765aaec740dc8842fce190ecab5f6b1c160023c",
      "function": "setPermit2Relayer(address)",
      "arguments": [
        "0xD41a48c3e0f5cE93206FC2527cc3EE88EC124151"
      ],
      "transaction": {
        "from": "0x87350ccfe163cbd6172c6ff3d39dbc93b01f9f46",
        "to": "0x8765aaec740dc8842fce190ecab5f6b1c160023c",
        "gas": "0x225fce0",
        "value": "0x0",
        "input": "0xe8ede753000000000000000000000000d41a48c3e0f5ce93206fc2527cc3ee88ec124151",
        "nonce": "0x12a",
        "chainId": "0x4cb2f"
      },
      "additionalContracts": [],
      "isFixedGasLimit": false
    }
  ],
  "receipts": [
    {
      "status": "0x1",
      "cumulativeGasUsed": "0x0",
      "logs": [
        {
          "address": "0x8765aaec740dc8842fce190ecab5f6b1c160023c",
          "topics": [
            "0x047b2668ff544a8bbf30bd7ba3e75486baa01a04badf5386b6c3bc9a7da4d663"
          ],
          "data": "0x0000000000000000000000000000000000000000000000000000000000014a34",
          "blockHash": "0xdccbc2fabfaaab7b6184e94f7991a3aac7606afa9fca704feb4803ffbc8c47f9",
          "blockNumber": "0x30d44d",
          "transactionHash": "0x9da2f0a08d332a42f55e4ae60e87be47a99f34d4f11a3ca66572b37f8bb1fdac",
          "transactionIndex": "0x0",
          "logIndex": "0x0",
          "removed": false
        }
      ],
      "logsBloom": "0x20000000000000000000000000000000000000000000000000000000000000000000000000000000000000000000000000000000000010000800000000000000000000000000000000000000000000000000000000000000000000000000000000000000000000000000000000000000000000000000000000000000000000000000000000000000000000000000000000000000000000000040000000000040000000000000000000000000000000000000000000000000000000000000000000000000000000000000000000000000020000000000000000000000000000000000000000000000000000000000000000000000000000000000000000000000",
      "type": "0x2",
      "transactionHash": "0x9da2f0a08d332a42f55e4ae60e87be47a99f34d4f11a3ca66572b37f8bb1fdac",
      "transactionIndex": "0x0",
      "blockHash": "0xdccbc2fabfaaab7b6184e94f7991a3aac7606afa9fca704feb4803ffbc8c47f9",
      "blockNumber": "0x30d44d",
      "gasUsed": "0xb75b4c",
      "effectiveGasPrice": "0x9686b",
      "from": "0x87350ccfe163cbd6172c6ff3d39dbc93b01f9f46",
      "to": "0x8765aaec740dc8842fce190ecab5f6b1c160023c",
      "contractAddress": null,
      "root": "0x0000000000000000000000000000000000000000000000000000000000000000"
    },
    {
      "status": "0x1",
      "cumulativeGasUsed": "0x0",
      "logs": [
        {
          "address": "0x8765aaec740dc8842fce190ecab5f6b1c160023c",
          "topics": [
            "0x00f6b276aebfc163c3646a63a0286f845fdd2df56be91b61b62044067ce849a4"
          ],
          "data": "0x0000000000000000000000000000000000000000000000000000000000014a340000000000000000000000009eb392a6286138e5d59a40da5398e567ab3aad7c000000000000000000000000b3042734b608a1b16e9e86b374a3f3e389b4cdf0",
          "blockHash": "0xdccbc2fabfaaab7b6184e94f7991a3aac7606afa9fca704feb4803ffbc8c47f9",
          "blockNumber": "0x30d44d",
          "transactionHash": "0x038d07d652d32ba1cd5711741b2a53209fef4b5c0f5e1299f9bbec68549f1648",
          "transactionIndex": "0x1",
          "logIndex": "0x1",
          "removed": false
        }
      ],
      "logsBloom": "0x20000000000000000000000000000000000000000000000000000000000000000000000000000000000000000000000000000000000000000000000000080000000000000000000000000000000000000000000000000000000000000000000000000000000000000000000000000000000000000000000000000000000000000000000000000000000000000000000000000000000000000000000000000040000000000000000000000000000000000000000000000000004000000000000000000000000000000000000000000000020000000000000000000000000000000000000000000000000000000000000000000000000000000000000000001000",
      "type": "0x2",
      "transactionHash": "0x038d07d652d32ba1cd5711741b2a53209fef4b5c0f5e1299f9bbec68549f1648",
      "transactionIndex": "0x1",
      "blockHash": "0xdccbc2fabfaaab7b6184e94f7991a3aac7606afa9fca704feb4803ffbc8c47f9",
      "blockNumber": "0x30d44d",
      "gasUsed": "0xdf3850",
      "effectiveGasPrice": "0xf11e7",
      "from": "0x87350ccfe163cbd6172c6ff3d39dbc93b01f9f46",
      "to": "0x8765aaec740dc8842fce190ecab5f6b1c160023c",
      "contractAddress": null,
      "root": "0x0000000000000000000000000000000000000000000000000000000000000000"
    },
    {
      "status": "0x1",
      "cumulativeGasUsed": "0x0",
      "logs": [
        {
          "address": "0x8765aaec740dc8842fce190ecab5f6b1c160023c",
          "topics": [
            "0xe85a6ec2afe29a301eeda921f161232f0288e22b7378ecbd84bf62b05d4b1a4c",
            "0x000000000000000000000000d41a48c3e0f5ce93206fc2527cc3ee88ec124151"
          ],
          "data": "0x",
          "blockHash": "0xdccbc2fabfaaab7b6184e94f7991a3aac7606afa9fca704feb4803ffbc8c47f9",
          "blockNumber": "0x30d44d",
          "transactionHash": "0xf0aa5dcd07270247e01a16c4d1f8138cd175d2aeeb622a712f11ef2a70d8a105",
          "transactionIndex": "0x2",
          "logIndex": "0x2",
          "removed": false
        }
      ],
      "logsBloom": "0x20000000000000000000800000000000000000000000000000000000000000000000000000000000000000000000000000000000000000000000000000000000000000000000000000000000000000000000000000000000000000000000000000000000000000000000000008000100000000000000000000000000008000000000000000000000000000000000000000000000000000000000000000000040000000000000000000000000000000000000000000000000000000000000000000000000000000000000000000000010020000000000000000000000000000000000000000000000000000000000000400000000000000000000000000000000",
      "type": "0x2",
      "transactionHash": "0xf0aa5dcd07270247e01a16c4d1f8138cd175d2aeeb622a712f11ef2a70d8a105",
      "transactionIndex": "0x2",
      "blockHash": "0xdccbc2fabfaaab7b6184e94f7991a3aac7606afa9fca704feb4803ffbc8c47f9",
      "blockNumber": "0x30d44d",
      "gasUsed": "0x87c7df",
      "effectiveGasPrice": "0x83cf2",
      "from": "0x87350ccfe163cbd6172c6ff3d39dbc93b01f9f46",
      "to": "0x8765aaec740dc8842fce190ecab5f6b1c160023c",
      "contractAddress": null,
      "root": "0x0000000000000000000000000000000000000000000000000000000000000000"
    }
  ],
  "libraries": [],
  "pending": [],
  "returns": {},
  "timestamp": 1763328721302,
  "chain": 314159,
  "commit": "58751831"
}