{
  "transactions": [
    {
      "hash": "0xec7c4ee67da3daed77ed7abfae2f1d8c5c78ee7580fe6e2dbdae48d217340581",
      "transactionType": "CALL",
      "contractName": null,
      "contractAddress": "0x978402948c2a8df795339884585409a400742331",
      "function": "permitDestinationChainId(uint256)",
      "arguments": [
        "84532"
      ],
      "transaction": {
        "from": "0x87350ccfe163cbd6172c6ff3d39dbc93b01f9f46",
        "to": "0x978402948c2a8df795339884585409a400742331",
        "gas": "0x35028e8",
        "value": "0x0",
        "input": "0x44d1da8c0000000000000000000000000000000000000000000000000000000000014a34",
        "nonce": "0xf4",
        "chainId": "0x4cb2f"
      },
      "additionalContracts": [],
      "isFixedGasLimit": false
    },
    {
      "hash": "0x547cb470c77f6709bdbdee8a99aa592e0255651f11bfce2bbdd2b0367c2fbcfa",
      "transactionType": "CALL",
      "contractName": null,
      "contractAddress": "0x978402948c2a8df795339884585409a400742331",
      "function": "setTokenMapping(uint256,address,address)",
      "arguments": [
        "84532",
        "0x9Eb392A6286138E5d59a40Da5398e567Ab3AAd7c",
        "0xb3042734b608a1B16e9e86B374A3f3e389B4cDf0"
      ],
      "transaction": {
        "from": "0x87350ccfe163cbd6172c6ff3d39dbc93b01f9f46",
        "to": "0x978402948c2a8df795339884585409a400742331",
        "gas": "0x675a020",
        "value": "0x0",
        "input": "0x9695ec210000000000000000000000000000000000000000000000000000000000014a340000000000000000000000009eb392a6286138e5d59a40da5398e567ab3aad7c000000000000000000000000b3042734b608a1b16e9e86b374a3f3e389b4cdf0",
        "nonce": "0xf5",
        "chainId": "0x4cb2f"
      },
      "additionalContracts": [],
      "isFixedGasLimit": false
    }
  ],
  "receipts": [
    {
      "status": "0x1",
      "cumulativeGasUsed": "0x0",
      "logs": [
        {
          "address": "0x978402948c2a8df795339884585409a400742331",
          "topics": [
            "0x047b2668ff544a8bbf30bd7ba3e75486baa01a04badf5386b6c3bc9a7da4d663"
          ],
          "data": "0x0000000000000000000000000000000000000000000000000000000000014a34",
          "blockHash": "0xb72e417965b14c72e0845b1711da7ff501aaf291b5b3a91703225d80a55733d5",
          "blockNumber": "0x30b8cf",
          "transactionHash": "0xec7c4ee67da3daed77ed7abfae2f1d8c5c78ee7580fe6e2dbdae48d217340581",
          "transactionIndex": "0x0",
          "logIndex": "0x0",
          "removed": false
        }
      ],
      "logsBloom": "0x08000000000000000000000000000000000000000000000000000000000000000000000000000000000000000000000000000000000010000800000000000000000000000000000000000000000000000000000000000000000000000000000000000000000000000000000000000000000000000000000000000000000000000000000000000000002000000000000000000000000000000040000000000000000000000000000000000000000000000000000000000000000000000400000000000000000000000000000000000000000000000000000000000000000000000000000000000000000000000000000000000000000000000000000000000000",
      "type": "0x2",
      "transactionHash": "0xec7c4ee67da3daed77ed7abfae2f1d8c5c78ee7580fe6e2dbdae48d217340581",
      "transactionIndex": "0x0",
      "blockHash": "0xb72e417965b14c72e0845b1711da7ff501aaf291b5b3a91703225d80a55733d5",
      "blockNumber": "0x30b8cf",
      "gasUsed": "0xb7be34",
      "effectiveGasPrice": "0xa1f0b",
      "from": "0x87350ccfe163cbd6172c6ff3d39dbc93b01f9f46",
      "to": "0x978402948c2a8df795339884585409a400742331",
      "contractAddress": null,
      "root": "0x0000000000000000000000000000000000000000000000000000000000000000"
    },
    {
      "status": "0x1",
      "cumulativeGasUsed": "0x0",
      "logs": [
        {
          "address": "0x978402948c2a8df795339884585409a400742331",
          "topics": [
            "0x00f6b276aebfc163c3646a63a0286f845fdd2df56be91b61b62044067ce849a4"
          ],
          "data": "0x0000000000000000000000000000000000000000000000000000000000014a340000000000000000000000009eb392a6286138e5d59a40da5398e567ab3aad7c000000000000000000000000b3042734b608a1b16e9e86b374a3f3e389b4cdf0",
          "blockHash": "0xb72e417965b14c72e0845b1711da7ff501aaf291b5b3a91703225d80a55733d5",
          "blockNumber": "0x30b8cf",
          "transactionHash": "0x547cb470c77f6709bdbdee8a99aa592e0255651f11bfce2bbdd2b0367c2fbcfa",
          "transactionIndex": "0x1",
          "logIndex": "0x1",
          "removed": false
        }
      ],
      "logsBloom": "0x08000000000000000000000000000000000000000000000000000000000000000000000000000000000000000000000000000000000000000000000000080000000000000000000000000000000000000000000000000000000000000000000000000000000000000000000000000000000000000000000000000000000000000000000000000000002000000000000000000000000000000000000000000000000000000000000000000000000000000000000000000000004000000400000000000000000000000000000000000000000000000000000000000000000000000000000000000000000000000000000000000000000000000000000000001000",
      "type": "0x2",
      "transactionHash": "0x547cb470c77f6709bdbdee8a99aa592e0255651f11bfce2bbdd2b0367c2fbcfa",
      "transactionIndex": "0x1",
      "blockHash": "0xb72e417965b14c72e0845b1711da7ff501aaf291b5b3a91703225d80a55733d5",
      "blockNumber": "0x30b8cf",
      "gasUsed": "0xdf8ef0",
      "effectiveGasPrice": "0x1037f7",
      "from": "0x87350ccfe163cbd6172c6ff3d39dbc93b01f9f46",
      "to": "0x978402948c2a8df795339884585409a400742331",
      "contractAddress": null,
      "root": "0x0000000000000000000000000000000000000000000000000000000000000000"
    }
  ],
  "libraries": [],
  "pending": [],
  "returns": {},
  "timestamp": 1763117580911,
  "chain": 314159,
  "commit": "e70127fe"
}