{
  "transactions": [
    {
      "hash": "0xd18534b04efc1f99e80b7b717f5a78b02930fc45a08c1d0b204085057ddc34b6",
      "transactionType": "CALL",
      "contractName": null,
      "contractAddress": "0x6bcc30f4a5ecde665dc0dd2102bfb34efe434108",
      "function": "permitDestinationChainId(uint256)",
      "arguments": [
        "84532"
      ],
      "transaction": {
        "from": "0x87350ccfe163cbd6172c6ff3d39dbc93b01f9f46",
        "to": "0x6bcc30f4a5ecde665dc0dd2102bfb34efe434108",
        "gas": "0x34d7580",
        "value": "0x0",
        "input": "0x44d1da8c0000000000000000000000000000000000000000000000000000000000014a34",
        "nonce": "0xe6",
        "chainId": "0x4cb2f"
      },
      "additionalContracts": [],
      "isFixedGasLimit": false
    },
    {
      "hash": "0x298736be26af8984620abc8565f3c586bbabbb5e68ec712f6591ae5878b888bc",
      "transactionType": "CALL",
      "contractName": null,
      "contractAddress": "0x6bcc30f4a5ecde665dc0dd2102bfb34efe434108",
      "function": "setTokenMapping(uint256,address,address)",
      "arguments": [
        "84532",
        "0x9Eb392A6286138E5d59a40Da5398e567Ab3AAd7c",
        "0xb3042734b608a1B16e9e86B374A3f3e389B4cDf0"
      ],
      "transaction": {
        "from": "0x87350ccfe163cbd6172c6ff3d39dbc93b01f9f46",
        "to": "0x6bcc30f4a5ecde665dc0dd2102bfb34efe434108",
        "gas": "0x67198e0",
        "value": "0x0",
        "input": "0x9695ec210000000000000000000000000000000000000000000000000000000000014a340000000000000000000000009eb392a6286138e5d59a40da5398e567ab3aad7c000000000000000000000000b3042734b608a1b16e9e86b374a3f3e389b4cdf0",
        "nonce": "0xe7",
        "chainId": "0x4cb2f"
      },
      "additionalContracts": [],
      "isFixedGasLimit": false
    },
    {
      "hash": "0x317f1ea295fcaf2c6f8a3c6e77d778de32985bc690f5c3adf01b488c61e6dda3",
      "transactionType": "CALL",
      "contractName": null,
      "contractAddress": "0x6bcc30f4a5ecde665dc0dd2102bfb34efe434108",
      "function": "setPermit2Relayer(address)",
      "arguments": [
        "0x4eA425E9A4F2506cd33aBd260Bea25e0471a8c0d"
      ],
      "transaction": {
        "from": "0x87350ccfe163cbd6172c6ff3d39dbc93b01f9f46",
        "to": "0x6bcc30f4a5ecde665dc0dd2102bfb34efe434108",
        "gas": "0x3652fb8",
        "value": "0x0",
        "input": "0xe8ede7530000000000000000000000004ea425e9a4f2506cd33abd260bea25e0471a8c0d",
        "nonce": "0xe8",
        "chainId": "0x4cb2f"
      },
      "additionalContracts": [],
      "isFixedGasLimit": false
    }
  ],
  "receipts": [
    {
      "status": "0x1",
      "cumulativeGasUsed": "0x0",
      "logs": [
        {
          "address": "0x6bcc30f4a5ecde665dc0dd2102bfb34efe434108",
          "topics": [
            "0x047b2668ff544a8bbf30bd7ba3e75486baa01a04badf5386b6c3bc9a7da4d663"
          ],
          "data": "0x0000000000000000000000000000000000000000000000000000000000014a34",
          "blockHash": "0x580d85f1a701cf487d2b4941222a1483562bd61960c7b7a8eb90cb00bd144b1f",
          "blockNumber": "0x30af85",
          "transactionHash": "0xd18534b04efc1f99e80b7b717f5a78b02930fc45a08c1d0b204085057ddc34b6",
          "transactionIndex": "0x4",
          "logIndex": "0xa",
          "removed": false
        }
      ],
      "logsBloom": "0x00000000000000000000000000000000000000000000000000000000000000000000000000000000000000000000000000000000000010000800000000000000000000000000000000000000000000000010000000000000000000000000000000080000000000000000000000000000000000000000000000000000000000000000000000000000000000000000000000000000000000000040000000000000000000000000000000000000000000000000000000000000000000000000000000000000000000000000000000000000000000000000000008000000000000000000000000000000000000000000000000000000000000000000000000000000",
      "type": "0x2",
      "transactionHash": "0xd18534b04efc1f99e80b7b717f5a78b02930fc45a08c1d0b204085057ddc34b6",
      "transactionIndex": "0x4",
      "blockHash": "0x580d85f1a701cf487d2b4941222a1483562bd61960c7b7a8eb90cb00bd144b1f",
      "blockNumber": "0x30af85",
      "gasUsed": "0xb26060",
      "effectiveGasPrice": "0xacf6f",
      "from": "0x87350ccfe163cbd6172c6ff3d39dbc93b01f9f46",
      "to": "0x6bcc30f4a5ecde665dc0dd2102bfb34efe434108",
      "contractAddress": null,
      "root": "0x0000000000000000000000000000000000000000000000000000000000000000"
    },
    {
      "status": "0x1",
      "cumulativeGasUsed": "0x0",
      "logs": [
        {
          "address": "0x6bcc30f4a5ecde665dc0dd2102bfb34efe434108",
          "topics": [
            "0x00f6b276aebfc163c3646a63a0286f845fdd2df56be91b61b62044067ce849a4"
          ],
          "data": "0x0000000000000000000000000000000000000000000000000000000000014a340000000000000000000000009eb392a6286138e5d59a40da5398e567ab3aad7c000000000000000000000000b3042734b608a1b16e9e86b374a3f3e389b4cdf0",
          "blockHash": "0x580d85f1a701cf487d2b4941222a1483562bd61960c7b7a8eb90cb00bd144b1f",
          "blockNumber": "0x30af85",
          "transactionHash": "0x298736be26af8984620abc8565f3c586bbabbb5e68ec712f6591ae5878b888bc",
          "transactionIndex": "0x5",
          "logIndex": "0xb",
          "removed": false
        }
      ],
      "logsBloom": "0x00000000000000000000000000000000000000000000000000000000000000000000000000000000000000000000000000000000000000000000000000080000000000000000000000000000000000000010000000000000000000000000000000080000000000000000000000000000000000000000000000000000000000000000000000000000000000000000000000000000000000000000000000000000000000000000000000000000000000000000000000000000004000000000000000000000000000000000000000000000000000000000000008000000000000000000000000000000000000000000000000000000000000000000000000001000",
      "type": "0x2",
      "transactionHash": "0x298736be26af8984620abc8565f3c586bbabbb5e68ec712f6591ae5878b888bc",
      "transactionIndex": "0x5",
      "blockHash": "0x580d85f1a701cf487d2b4941222a1483562bd61960c7b7a8eb90cb00bd144b1f",
      "blockNumber": "0x30af85",
      "gasUsed": "0xd9fd70",
      "effectiveGasPrice": "0x114264",
      "from": "0x87350ccfe163cbd6172c6ff3d39dbc93b01f9f46",
      "to": "0x6bcc30f4a5ecde665dc0dd2102bfb34efe434108",
      "contractAddress": null,
      "root": "0x0000000000000000000000000000000000000000000000000000000000000000"
    },
    {
      "status": "0x1",
      "cumulativeGasUsed": "0x0",
      "logs": [
        {
          "address": "0x6bcc30f4a5ecde665dc0dd2102bfb34efe434108",
          "topics": [
            "0xe85a6ec2afe29a301eeda921f161232f0288e22b7378ecbd84bf62b05d4b1a4c",
            "0x0000000000000000000000004ea425e9a4f2506cd33abd260bea25e0471a8c0d"
          ],
          "data": "0x",
          "blockHash": "0x580d85f1a701cf487d2b4941222a1483562bd61960c7b7a8eb90cb00bd144b1f",
          "blockNumber": "0x30af85",
          "transactionHash": "0x317f1ea295fcaf2c6f8a3c6e77d778de32985bc690f5c3adf01b488c61e6dda3",
          "transactionIndex": "0x6",
          "logIndex": "0xc",
          "removed": false
        }
      ],
      "logsBloom": "0x00000000000000000000c00000000000000000000000000001000000000000000000000000000000000000000000000000000000000000000000000000000000000000000000000000000000000000000010000000000000000000000000000000080000000000000000000008000100001000000000000000000000000000000000000000000000000000000000000000000000000000000000000000000000000000000000000000000000000000000000000000000000000000000000000000000000000000000000000000000000000000000000000008000000000000000000000000000000000000000000000000000000000000000000000000000000",
      "type": "0x2",
      "transactionHash": "0x317f1ea295fcaf2c6f8a3c6e77d778de32985bc690f5c3adf01b488c61e6dda3",
      "transactionIndex": "0x6",
      "blockHash": "0x580d85f1a701cf487d2b4941222a1483562bd61960c7b7a8eb90cb00bd144b1f",
      "blockNumber": "0x30af85",
      "gasUsed": "0xe3310b",
      "effectiveGasPrice": "0x8b9cb",
      "from": "0x87350ccfe163cbd6172c6ff3d39dbc93b01f9f46",
      "to": "0x6bcc30f4a5ecde665dc0dd2102bfb34efe434108",
      "contractAddress": null,
      "root": "0x0000000000000000000000000000000000000000000000000000000000000000"
    }
  ],
  "libraries": [],
  "pending": [],
  "returns": {},
  "timestamp": 1763046240427,
  "chain": 314159,
  "commit": "ae56eed0"
}