{
  "transactions": [
    {
      "hash": "0xa104503fbfc8ca006d01688d71f39c6e02723df5c55730ee1c9f2eb7cb23d421",
      "transactionType": "CALL",
      "contractName": null,
      "contractAddress": "0x0e4056dcfe07ed0d01d87b1ab312b0ca0ee823c0",
      "function": "permitDestinationChainId(uint256)",
      "arguments": [
        "84532"
      ],
      "transaction": {
        "from": "0x87350ccfe163cbd6172c6ff3d39dbc93b01f9f46",
        "to": "0x0e4056dcfe07ed0d01d87b1ab312b0ca0ee823c0",
        "gas": "0x35028e8",
        "value": "0x0",
        "input": "0x44d1da8c0000000000000000000000000000000000000000000000000000000000014a34",
        "nonce": "0x10a",
        "chainId": "0x4cb2f"
      },
      "additionalContracts": [],
      "isFixedGasLimit": false
    },
    {
      "hash": "0xf4a000d5c2a9ac9d68583bec387a303302ca31575ceb9172ae83e17caead7c8b",
      "transactionType": "CALL",
      "contractName": null,
      "contractAddress": "0x0e4056dcfe07ed0d01d87b1ab312b0ca0ee823c0",
      "function": "setTokenMapping(uint256,address,address)",
      "arguments": [
        "84532",
        "0x9Eb392A6286138E5d59a40Da5398e567Ab3AAd7c",
        "0xb3042734b608a1B16e9e86B374A3f3e389B4cDf0"
      ],
      "transaction": {
        "from": "0x87350ccfe163cbd6172c6ff3d39dbc93b01f9f46",
        "to": "0x0e4056dcfe07ed0d01d87b1ab312b0ca0ee823c0",
        "gas": "0x675a020",
        "value": "0x0",
        "input": "0x9695ec210000000000000000000000000000000000000000000000000000000000014a340000000000000000000000009eb392a6286138e5d59a40da5398e567ab3aad7c000000000000000000000000b3042734b608a1b16e9e86b374a3f3e389b4cdf0",
        "nonce": "0x10b",
        "chainId": "0x4cb2f"
      },
      "additionalContracts": [],
      "isFixedGasLimit": false
    },
    {
      "hash": "0xa7a91da6ad35dde5af2e47146acb0549253bd7fd679f817095afe81c626877d5",
      "transactionType": "CALL",
      "contractName": null,
      "contractAddress": "0x0e4056dcfe07ed0d01d87b1ab312b0ca0ee823c0",
      "function": "setPermit2Relayer(address)",
      "arguments": [
        "0xf76B96Ad544c59f95B67BB7b43C5417BF6eb9251"
      ],
      "transaction": {
        "from": "0x87350ccfe163cbd6172c6ff3d39dbc93b01f9f46",
        "to": "0x0e4056dcfe07ed0d01d87b1ab312b0ca0ee823c0",
        "gas": "0x2259f20",
        "value": "0x0",
        "input": "0xe8ede753000000000000000000000000f76b96ad544c59f95b67bb7b43c5417bf6eb9251",
        "nonce": "0x10c",
        "chainId": "0x4cb2f"
      },
      "additionalContracts": [],
      "isFixedGasLimit": false
    }
  ],
  "receipts": [
    {
      "status": "0x1",
      "cumulativeGasUsed": "0x0",
      "logs": [
        {
          "address": "0x0e4056dcfe07ed0d01d87b1ab312b0ca0ee823c0",
          "topics": [
            "0x047b2668ff544a8bbf30bd7ba3e75486baa01a04badf5386b6c3bc9a7da4d663"
          ],
          "data": "0x0000000000000000000000000000000000000000000000000000000000014a34",
          "blockHash": "0xad4728b952a648a18585970fb8160f21c9585e4b83fd76e18eb816b7198e54ae",
          "blockNumber": "0x30bc39",
          "transactionHash": "0xa104503fbfc8ca006d01688d71f39c6e02723df5c55730ee1c9f2eb7cb23d421",
          "transactionIndex": "0x0",
          "logIndex": "0x0",
          "removed": false
        }
      ],
      "logsBloom": "0x00000000000000000000000000000000000000000000000000000000000000000000000000000000000000000000000000000000000010040800000000000000000000000000000000000000000000000000000000000000000000000000000000000000000000000000000000000000000000000000000000000000000000000000000000000010000000000000000000000000000800000040000000000000000000000000000000000000000000000000000000000000000000000000000000000000000000000000000000000000000000000000000000000000000000000000000000000000000000000000000000000000000000000000000000000000",
      "type": "0x2",
      "transactionHash": "0xa104503fbfc8ca006d01688d71f39c6e02723df5c55730ee1c9f2eb7cb23d421",
      "transactionIndex": "0x0",
      "blockHash": "0xad4728b952a648a18585970fb8160f21c9585e4b83fd76e18eb816b7198e54ae",
      "blockNumber": "0x30bc39",
      "gasUsed": "0xb79887",
      "effectiveGasPrice": "0x919d0",
      "from": "0x87350ccfe163cbd6172c6ff3d39dbc93b01f9f46",
      "to": "0x0e4056dcfe07ed0d01d87b1ab312b0ca0ee823c0",
      "contractAddress": null,
      "root": "0x0000000000000000000000000000000000000000000000000000000000000000"
    },
    {
      "status": "0x1",
      "cumulativeGasUsed": "0x0",
      "logs": [
        {
          "address": "0x0e4056dcfe07ed0d01d87b1ab312b0ca0ee823c0",
          "topics": [
            "0x00f6b276aebfc163c3646a63a0286f845fdd2df56be91b61b62044067ce849a4"
          ],
          "data": "0x0000000000000000000000000000000000000000000000000000000000014a340000000000000000000000009eb392a6286138e5d59a40da5398e567ab3aad7c000000000000000000000000b3042734b608a1b16e9e86b374a3f3e389b4cdf0",
          "blockHash": "0xad4728b952a648a18585970fb8160f21c9585e4b83fd76e18eb816b7198e54ae",
          "blockNumber": "0x30bc39",
          "transactionHash": "0xf4a000d5c2a9ac9d68583bec387a303302ca31575ceb9172ae83e17caead7c8b",
          "transactionIndex": "0x1",
          "logIndex": "0x1",
          "removed": false
        }
      ],
      "logsBloom": "0x00000000000000000000000000000000000000000000000000000000000000000000000000000000000000000000000000000000000000040000000000080000000000000000000000000000000000000000000000000000000000000000000000000000000000000000000000000000000000000000000000000000000000000000000000000010000000000000000000000000000800000000000000000000000000000000000000000000000000000000000000000000004000000000000000000000000000000000000000000000000000000000000000000000000000000000000000000000000000000000000000000000000000000000000000001000",
      "type": "0x2",
      "transactionHash": "0xf4a000d5c2a9ac9d68583bec387a303302ca31575ceb9172ae83e17caead7c8b",
      "transactionIndex": "0x1",
      "blockHash": "0xad4728b952a648a18585970fb8160f21c9585e4b83fd76e18eb816b7198e54ae",
      "blockNumber": "0x30bc39",
      "gasUsed": "0xdf6943",
      "effectiveGasPrice": "0xe94d5",
      "from": "0x87350ccfe163cbd6172c6ff3d39dbc93b01f9f46",
      "to": "0x0e4056dcfe07ed0d01d87b1ab312b0ca0ee823c0",
      "contractAddress": null,
      "root": "0x0000000000000000000000000000000000000000000000000000000000000000"
    },
    {
      "status": "0x1",
      "cumulativeGasUsed": "0x0",
      "logs": [
        {
          "address": "0x0e4056dcfe07ed0d01d87b1ab312b0ca0ee823c0",
          "topics": [
            "0xe85a6ec2afe29a301eeda921f161232f0288e22b7378ecbd84bf62b05d4b1a4c",
            "0x000000000000000000000000f76b96ad544c59f95b67bb7b43c5417bf6eb9251"
          ],
          "data": "0x",
          "blockHash": "0xad4728b952a648a18585970fb8160f21c9585e4b83fd76e18eb816b7198e54ae",
          "blockNumber": "0x30bc39",
          "transactionHash": "0xa7a91da6ad35dde5af2e47146acb0549253bd7fd679f817095afe81c626877d5",
          "transactionIndex": "0x2",
          "logIndex": "0x2",
          "removed": false
        }
      ],
      "logsBloom": "0x00000000000000000000800000000000000000000000000000000000000000000000000100000000000000000000000000000000000000040000000000000000000000000000000000000000000000000000000000000000000000000000000000000000000000000000000008000100000000000000000000000000000000000000000000000010000000000000000000000000000800000000000000002000000000000000000000000000000000000000000000000000000000000000000000000000000000000000000000000000000000000000400000000000000000000000000000000000000000000000000000000000000000000000000000000000",
      "type": "0x2",
      "transactionHash": "0xa7a91da6ad35dde5af2e47146acb0549253bd7fd679f817095afe81c626877d5",
      "transactionIndex": "0x2",
      "blockHash": "0xad4728b952a648a18585970fb8160f21c9585e4b83fd76e18eb816b7198e54ae",
      "blockNumber": "0x30bc39",
      "gasUsed": "0x87f8d1",
      "effectiveGasPrice": "0x7f68c",
      "from": "0x87350ccfe163cbd6172c6ff3d39dbc93b01f9f46",
      "to": "0x0e4056dcfe07ed0d01d87b1ab312b0ca0ee823c0",
      "contractAddress": null,
      "root": "0x0000000000000000000000000000000000000000000000000000000000000000"
    }
  ],
  "libraries": [],
  "pending": [],
  "returns": {},
  "timestamp": 1763143800977,
  "chain": 314159,
  "commit": "9ab6010f"
}