{
  "transactions": [
    {
      "hash": "0xf694cee2b90f52699e58d018f6c3eb82231d5232b601ab83093d415c308fd104",
      "transactionType": "CALL",
      "contractName": null,
      "contractAddress": "0xc467619e1fc5242ccee89399d0994ff0d2204979",
      "function": "permitDestinationChainId(uint256)",
      "arguments": [
        "84532"
      ],
      "transaction": {
        "from": "0x87350ccfe163cbd6172c6ff3d39dbc93b01f9f46",
        "to": "0xc467619e1fc5242ccee89399d0994ff0d2204979",
        "gas": "0x35028e8",
        "value": "0x0",
        "input": "0x44d1da8c0000000000000000000000000000000000000000000000000000000000014a34",
        "nonce": "0x119",
        "chainId": "0x4cb2f"
      },
      "additionalContracts": [],
      "isFixedGasLimit": false
    },
    {
      "hash": "0xb60191d708cd0b7073025e18de59b30a058ad3730c9419a10838f10b32888ed5",
      "transactionType": "CALL",
      "contractName": null,
      "contractAddress": "0xc467619e1fc5242ccee89399d0994ff0d2204979",
      "function": "setTokenMapping(uint256,address,address)",
      "arguments": [
        "84532",
        "0x9Eb392A6286138E5d59a40Da5398e567Ab3AAd7c",
        "0xb3042734b608a1B16e9e86B374A3f3e389B4cDf0"
      ],
      "transaction": {
        "from": "0x87350ccfe163cbd6172c6ff3d39dbc93b01f9f46",
        "to": "0xc467619e1fc5242ccee89399d0994ff0d2204979",
        "gas": "0x675fde0",
        "value": "0x0",
        "input": "0x9695ec210000000000000000000000000000000000000000000000000000000000014a340000000000000000000000009eb392a6286138e5d59a40da5398e567ab3aad7c000000000000000000000000b3042734b608a1b16e9e86b374a3f3e389b4cdf0",
        "nonce": "0x11a",
        "chainId": "0x4cb2f"
      },
      "additionalContracts": [],
      "isFixedGasLimit": false
    },
    {
      "hash": "0xd0cfe039fd10767541932bf134a7bbe64f1af313e0d28a13a39547911c8e1417",
      "transactionType": "CALL",
      "contractName": null,
      "contractAddress": "0xc467619e1fc5242ccee89399d0994ff0d2204979",
      "function": "setPermit2Relayer(address)",
      "arguments": [
        "0x6Ac5207cf8190D1ee7e0008Fc809dA5846E2dCaa"
      ],
      "transaction": {
        "from": "0x87350ccfe163cbd6172c6ff3d39dbc93b01f9f46",
        "to": "0xc467619e1fc5242ccee89399d0994ff0d2204979",
        "gas": "0x225ca18",
        "value": "0x0",
        "input": "0xe8ede7530000000000000000000000006ac5207cf8190d1ee7e0008fc809da5846e2dcaa",
        "nonce": "0x11b",
        "chainId": "0x4cb2f"
      },
      "additionalContracts": [],
      "isFixedGasLimit": false
    }
  ],
  "receipts": [
    {
      "status": "0x1",
      "cumulativeGasUsed": "0x0",
      "logs": [
        {
          "address": "0xc467619e1fc5242ccee89399d0994ff0d2204979",
          "topics": [
            "0x047b2668ff544a8bbf30bd7ba3e75486baa01a04badf5386b6c3bc9a7da4d663"
          ],
          "data": "0x0000000000000000000000000000000000000000000000000000000000014a34",
          "blockHash": "0x4704a2d7bc4ceb293ad727ac9a3c354a2048aa488edf96e93e2ce34f7e25e6c2",
          "blockNumber": "0x30bf30",
          "transactionHash": "0xf694cee2b90f52699e58d018f6c3eb82231d5232b601ab83093d415c308fd104",
          "transactionIndex": "0x0",
          "logIndex": "0x0",
          "removed": false
        }
      ],
      "logsBloom": "0x00000000000000000000000000000200000000000000000000000000000000000000000000000000000000000000000000000000000010000800000000000000000000000000000000000000000000000000000000000000000000000000000000000000000000000000000000000000000000000000000000000000000000008000000000000000000000000000000000000000000000000040000000000000000000000000000000000000000000000000000000000000000008000000000000000000000000000000000000000000000000000000000000000000000000000000000000000000000000000000000000000000000000000000000000000000",
      "type": "0x2",
      "transactionHash": "0xf694cee2b90f52699e58d018f6c3eb82231d5232b601ab83093d415c308fd104",
      "transactionIndex": "0x0",
      "blockHash": "0x4704a2d7bc4ceb293ad727ac9a3c354a2048aa488edf96e93e2ce34f7e25e6c2",
      "blockNumber": "0x30bf30",
      "gasUsed": "0xb7a9c7",
      "effectiveGasPrice": "0x93f2f",
      "from": "0x87350ccfe163cbd6172c6ff3d39dbc93b01f9f46",
      "to": "0xc467619e1fc5242ccee89399d0994ff0d2204979",
      "contractAddress": null,
      "root": "0x0000000000000000000000000000000000000000000000000000000000000000"
    },
    {
      "status": "0x1",
      "cumulativeGasUsed": "0x0",
      "logs": [
        {
          "address": "0xc467619e1fc5242ccee89399d0994ff0d2204979",
          "topics": [
            "0x00f6b276aebfc163c3646a63a0286f845fdd2df56be91b61b62044067ce849a4"
          ],
          "data": "0x0000000000000000000000000000000000000000000000000000000000014a340000000000000000000000009eb392a6286138e5d59a40da5398e567ab3aad7c000000000000000000000000b3042734b608a1b16e9e86b374a3f3e389b4cdf0",
          "blockHash": "0x4704a2d7bc4ceb293ad727ac9a3c354a2048aa488edf96e93e2ce34f7e25e6c2",
          "blockNumber": "0x30bf30",
          "transactionHash": "0xb60191d708cd0b7073025e18de59b30a058ad3730c9419a10838f10b32888ed5",
          "transactionIndex": "0x1",
          "logIndex": "0x1",
          "removed": false
        }
      ],
      "logsBloom": "0x00000000000000000000000000000200000000000000000000000000000000000000000000000000000000000000000000000000000000000000000000080000000000000000000000000000000000000000000000000000000000000000000000000000000000000000000000000000000000000000000000000000000000008000000000000000000000000000000000000000000000000000000000000000000000000000000000000000000000000000000000000000004008000000000000000000000000000000000000000000000000000000000000000000000000000000000000000000000000000000000000000000000000000000000000001000",
      "type": "0x2",
      "transactionHash": "0xb60191d708cd0b7073025e18de59b30a058ad3730c9419a10838f10b32888ed5",
      "transactionIndex": "0x1",
      "blockHash": "0x4704a2d7bc4ceb293ad727ac9a3c354a2048aa488edf96e93e2ce34f7e25e6c2",
      "blockNumber": "0x30bf30",
      "gasUsed": "0xdf86cb",
      "effectiveGasPrice": "0xed0fb",
      "from": "0x87350ccfe163cbd6172c6ff3d39dbc93b01f9f46",
      "to": "0xc467619e1fc5242ccee89399d0994ff0d2204979",
      "contractAddress": null,
      "root": "0x0000000000000000000000000000000000000000000000000000000000000000"
    },
    {
      "status": "0x1",
      "cumulativeGasUsed": "0x0",
      "logs": [
        {
          "address": "0xc467619e1fc5242ccee89399d0994ff0d2204979",
          "topics": [
            "0xe85a6ec2afe29a301eeda921f161232f0288e22b7378ecbd84bf62b05d4b1a4c",
            "0x0000000000000000000000006ac5207cf8190d1ee7e0008fc809da5846e2dcaa"
          ],
          "data": "0x",
          "blockHash": "0x4704a2d7bc4ceb293ad727ac9a3c354a2048aa488edf96e93e2ce34f7e25e6c2",
          "blockNumber": "0x30bf30",
          "transactionHash": "0xd0cfe039fd10767541932bf134a7bbe64f1af313e0d28a13a39547911c8e1417",
          "transactionIndex": "0x2",
          "logIndex": "0x2",
          "removed": false
        }
      ],
      "logsBloom": "0x00000000000000000000800000000200000000000000000000000000000000000000000000000000000000000000000000000000000000000000000000000000000000000000000000000000000000000000000000000000000000000000000000000000000000000000000008000100000000000000000000000000000000008000000000000000000000000000000000000000000000000000000000000000000000000000000000000000000000000000000000000000000008000000000000000000000000000000000000000000000000000000000000000000000000000000010000000000000000040000000000000000000000000000000080000000",
      "type": "0x2",
      "transactionHash": "0xd0cfe039fd10767541932bf134a7bbe64f1af313e0d28a13a39547911c8e1417",
      "transactionIndex": "0x2",
      "blockHash": "0x4704a2d7bc4ceb293ad727ac9a3c354a2048aa488edf96e93e2ce34f7e25e6c2",
      "blockNumber": "0x30bf30",
      "gasUsed": "0x881659",
      "effectiveGasPrice": "0x816e1",
      "from": "0x87350ccfe163cbd6172c6ff3d39dbc93b01f9f46",
      "to": "0xc467619e1fc5242ccee89399d0994ff0d2204979",
      "contractAddress": null,
      "root": "0x0000000000000000000000000000000000000000000000000000000000000000"
    }
  ],
  "libraries": [],
  "pending": [],
  "returns": {},
  "timestamp": 1763166570928,
  "chain": 314159,
  "commit": "79d08d67"
}