{
  "transactions": [
    {
      "hash": "0x66ea81dae6f1f946ab85440de0cc750bdbaa6332eadd0a5a37c5d13b82d0e696",
      "transactionType": "CALL",
      "contractName": null,
      "contractAddress": "0x16323707e61d20a39aae5ab64808e480b91658ab",
      "function": "grantRole(bytes32,address)",
      "arguments": [
        "0xa49807205ce4d355092ef5a8a18f56e8913cf4a201fbe287825b095693c21775",
        "0xFcb755f48cAdb0b92E8c1315150Ce2Ac91C9C336"
      ],
      "transaction": {
        "from": "0x87350ccfe163cbd6172c6ff3d39dbc93b01f9f46",
        "to": "0x16323707e61d20a39aae5ab64808e480b91658ab",
        "gas": "0x23e3e",
        "value": "0x0",
        "input": "0x2f2ff15da49807205ce4d355092ef5a8a18f56e8913cf4a201fbe287825b095693c21775000000000000000000000000fcb755f48cadb0b92e8c1315150ce2ac91c9c336",
        "nonce": "0x12a",
        "chainId": "0x14a34"
      },
      "additionalContracts": [],
      "isFixedGasLimit": false
    },
    {
      "hash": "0x8247a7bd65d5208ec30bfd45717bdf1032718ae4636c9b0628562212e9e27c09",
      "transactionType": "CALL",
      "contractName": null,
      "contractAddress": "0x16323707e61d20a39aae5ab64808e480b91658ab",
      "function": "grantRole(bytes32,address)",
      "arguments": [
        "0x0000000000000000000000000000000000000000000000000000000000000000",
        "0xFcb755f48cAdb0b92E8c1315150Ce2Ac91C9C336"
      ],
      "transaction": {
        "from": "0x87350ccfe163cbd6172c6ff3d39dbc93b01f9f46",
        "to": "0x16323707e61d20a39aae5ab64808e480b91658ab",
        "gas": "0x23c2c",
        "value": "0x0",
        "input": "0x2f2ff15d0000000000000000000000000000000000000000000000000000000000000000000000000000000000000000fcb755f48cadb0b92e8c1315150ce2ac91c9c336",
        "nonce": "0x12b",
        "chainId": "0x14a34"
      },
      "additionalContracts": [],
      "isFixedGasLimit": false
    }
  ],
  "receipts": [
    {
      "status": "0x1",
      "cumulativeGasUsed": "0x140feb",
      "logs": [
        {
          "address": "0x16323707e61d20a39aae5ab64808e480b91658ab",
          "topics": [
            "0x2f8788117e7eff1d82e926ec794901d17c78024a50270940304540a733656f0d",
            "0xa49807205ce4d355092ef5a8a18f56e8913cf4a201fbe287825b095693c21775",
            "0x000000000000000000000000fcb755f48cadb0b92e8c1315150ce2ac91c9c336",
            "0x00000000000000000000000087350ccfe163cbd6172c6ff3d39dbc93b01f9f46"
          ],
          "data": "0x",
          "blockHash": "0xed7657a9232f201d94b0c33e736b9bfdf55bcb1ff03a563fc5edfbabe01713ab",
          "blockNumber": "0x213c959",
          "blockTimestamp": "0x693af192",
          "transactionHash": "0x66ea81dae6f1f946ab85440de0cc750bdbaa6332eadd0a5a37c5d13b82d0e696",
          "transactionIndex": "0x10",
          "logIndex": "0x19",
          "removed": false
        }
      ],
      "logsBloom": "0x00000004000000000000000000000000000000000000000000000000000000000000000000000400000000000000000000000000000000000000000000000000000000000000010000000000000000000000000020000000000000000000000000000100000001000000000000000000000000000000000800000000010000000000000000000000000000000000004000000080000000000080100000000000000000000000000000000000000000000000000000000000001000000000000000000000000000000000000000000000000000000000000100000000000000000000000000000000000010000000000000000000000000000000000000000000",
      "type": "0x2",
      "transactionHash": "0x66ea81dae6f1f946ab85440de0cc750bdbaa6332eadd0a5a37c5d13b82d0e696",
      "transactionIndex": "0x10",
      "blockHash": "0xed7657a9232f201d94b0c33e736b9bfdf55bcb1ff03a563fc5edfbabe01713ab",
      "blockNumber": "0x213c959",
      "gasUsed": "0x19fbf",
      "effectiveGasPrice": "0x124f80",
      "blobGasUsed": "0x8268",
      "from": "0x87350ccfe163cbd6172c6ff3d39dbc93b01f9f46",
      "to": "0x16323707e61d20a39aae5ab64808e480b91658ab",
      "contractAddress": null,
      "daFootprintGasScalar": "0x138",
      "l1BaseFeeScalar": "0x44d",
      "l1BlobBaseFee": "0x1",
      "l1BlobBaseFeeScalar": "0xa118b",
      "l1Fee": "0x5e",
      "l1GasPrice": "0xc",
      "l1GasUsed": "0x6bf"
    },
    {
      "status": "0x1",
      "cumulativeGasUsed": "0x15ae2a",
      "logs": [
        {
          "address": "0x16323707e61d20a39aae5ab64808e480b91658ab",
          "topics": [
            "0x2f8788117e7eff1d82e926ec794901d17c78024a50270940304540a733656f0d",
            "0x0000000000000000000000000000000000000000000000000000000000000000",
            "0x000000000000000000000000fcb755f48cadb0b92e8c1315150ce2ac91c9c336",
            "0x00000000000000000000000087350ccfe163cbd6172c6ff3d39dbc93b01f9f46"
          ],
          "data": "0x",
          "blockHash": "0xed7657a9232f201d94b0c33e736b9bfdf55bcb1ff03a563fc5edfbabe01713ab",
          "blockNumber": "0x213c959",
          "blockTimestamp": "0x693af192",
          "transactionHash": "0x8247a7bd65d5208ec30bfd45717bdf1032718ae4636c9b0628562212e9e27c09",
          "transactionIndex": "0x11",
          "logIndex": "0x1a",
          "removed": false
        }
      ],
      "logsBloom": "0x00000004000000000000000000000000000000000000000000000000000000000000000000000400000000000000000000000000000000000000000000000000000000000000010000000000000000000000000000000000000000000000000000000100020001000000000000000800000000000000000000000000010000000000000000000000000000000000000000000080000000000080100000000000000000000000000000000000000000000000000000000000001000000000000000000000000000000000000000000000000000000000000100000000000020000000000000000000000010000000000000000000000000000000000000000000",
      "type": "0x2",
      "transactionHash": "0x8247a7bd65d5208ec30bfd45717bdf1032718ae4636c9b0628562212e9e27c09",
      "transactionIndex": "0x11",
      "blockHash": "0xed7657a9232f201d94b0c33e736b9bfdf55bcb1ff03a563fc5edfbabe01713ab",
      "blockNumber": "0x213c959",
      "gasUsed": "0x19e3f",
      "effectiveGasPrice": "0x124f80",
      "blobGasUsed": "0x79e0",
      "from": "0x87350ccfe163cbd6172c6ff3d39dbc93b01f9f46",
      "to": "0x16323707e61d20a39aae5ab64808e480b91658ab",
      "contractAddress": null,
      "daFootprintGasScalar": "0x138",
      "l1BaseFeeScalar": "0x44d",
      "l1BlobBaseFee": "0x1",
      "l1BlobBaseFeeScalar": "0xa118b",
      "l1Fee": "0x57",
      "l1GasPrice": "0xc",
      "l1GasUsed": "0x640"
    }
  ],
  "libraries": [],
  "pending": [],
  "returns": {},
  "timestamp": 1765470610501,
  "chain": 84532,
  "commit": "8b570dad"
}