{
  "transactions": [
    {
      "hash": "0x10a119f7a934fed0347a1407c2cbf6e34cafc5156cd33aeded7c62d0815a4a4d",
      "transactionType": "CALL",
      "contractName": null,
      "contractAddress": "0xd22302849a87d5b00f13e504581bc086300da080",
      "function": "grantRole(bytes32,address)",
      "arguments": [
        "0xa49807205ce4d355092ef5a8a18f56e8913cf4a201fbe287825b095693c21775",
        "0xFcb755f48cAdb0b92E8c1315150Ce2Ac91C9C336"
      ],
      "transaction": {
        "from": "0x87350ccfe163cbd6172c6ff3d39dbc93b01f9f46",
        "to": "0xd22302849a87d5b00f13e504581bc086300da080",
        "gas": "0x2602f",
        "value": "0x0",
        "input": "0x2f2ff15da49807205ce4d355092ef5a8a18f56e8913cf4a201fbe287825b095693c21775000000000000000000000000fcb755f48cadb0b92e8c1315150ce2ac91c9c336",
        "nonce": "0x1c",
        "chainId": "0xaa37dc"
      },
      "additionalContracts": [],
      "isFixedGasLimit": false
    },
    {
      "hash": "0xaf763a45405f8f5a60a6aac50256db858dc7ae7b4e3656ce1a46905c66df7d3e",
      "transactionType": "CALL",
      "contractName": null,
      "contractAddress": "0xd22302849a87d5b00f13e504581bc086300da080",
      "function": "grantRole(bytes32,address)",
      "arguments": [
        "0x0000000000000000000000000000000000000000000000000000000000000000",
        "0xFcb755f48cAdb0b92E8c1315150Ce2Ac91C9C336"
      ],
      "transaction": {
        "from": "0x87350ccfe163cbd6172c6ff3d39dbc93b01f9f46",
        "to": "0xd22302849a87d5b00f13e504581bc086300da080",
        "gas": "0x25dfe",
        "value": "0x0",
        "input": "0x2f2ff15d0000000000000000000000000000000000000000000000000000000000000000000000000000000000000000fcb755f48cadb0b92e8c1315150ce2ac91c9c336",
        "nonce": "0x1d",
        "chainId": "0xaa37dc"
      },
      "additionalContracts": [],
      "isFixedGasLimit": false
    }
  ],
  "receipts": [
    {
      "status": "0x1",
      "cumulativeGasUsed": "0x25429",
      "logs": [
        {
          "address": "0xd22302849a87d5b00f13e504581bc086300da080",
          "topics": [
            "0x2f8788117e7eff1d82e926ec794901d17c78024a50270940304540a733656f0d",
            "0xa49807205ce4d355092ef5a8a18f56e8913cf4a201fbe287825b095693c21775",
            "0x000000000000000000000000fcb755f48cadb0b92e8c1315150ce2ac91c9c336",
            "0x00000000000000000000000087350ccfe163cbd6172c6ff3d39dbc93b01f9f46"
          ],
          "data": "0x",
          "blockHash": "0x0f926e0e54829bd4958f6476e232af19aa4e7435cd90e9fb84f9238ef3d06ff9",
          "blockNumber": "0x23214d9",
          "blockTimestamp": "0x693b055e",
          "transactionHash": "0x10a119f7a934fed0347a1407c2cbf6e34cafc5156cd33aeded7c62d0815a4a4d",
          "transactionIndex": "0x1",
          "logIndex": "0x0",
          "removed": false
        }
      ],
      "logsBloom": "0x00000004000000000000000000000000000000000000000000000000000000010000000000000400000000000000000000000000000000000000000000000000000000000000010000000000000000000000000020000000000000000000000000000100000001000000000000000000000000000000000800000000000000000000000000000000000000000000004000000080000000000080000000000000000000000000000000000000000000000000000800000000001000000000000000000000000000000000000000000000000000000000000100000000000000000000000000000000000000000000000000000000080000000000000000000000",
      "type": "0x2",
      "transactionHash": "0x10a119f7a934fed0347a1407c2cbf6e34cafc5156cd33aeded7c62d0815a4a4d",
      "transactionIndex": "0x1",
      "blockHash": "0x0f926e0e54829bd4958f6476e232af19aa4e7435cd90e9fb84f9238ef3d06ff9",
      "blockNumber": "0x23214d9",
      "gasUsed": "0x19fdb",
      "effectiveGasPrice": "0xf433a",
      "blobGasUsed": "0xa5a0",
      "from": "0x87350ccfe163cbd6172c6ff3d39dbc93b01f9f46",
      "to": "0xd22302849a87d5b00f13e504581bc086300da080",
      "contractAddress": null,
      "daFootprintGasScalar": "0x190",
      "l1BaseFeeScalar": "0x1db0",
      "l1BlobBaseFee": "0x1",
      "l1BlobBaseFeeScalar": "0xd2730",
      "l1Fee": "0xdc",
      "l1GasPrice": "0xa",
      "l1GasUsed": "0x6a4"
    },
    {
      "status": "0x1",
      "cumulativeGasUsed": "0x3f284",
      "logs": [
        {
          "address": "0xd22302849a87d5b00f13e504581bc086300da080",
          "topics": [
            "0x2f8788117e7eff1d82e926ec794901d17c78024a50270940304540a733656f0d",
            "0x0000000000000000000000000000000000000000000000000000000000000000",
            "0x000000000000000000000000fcb755f48cadb0b92e8c1315150ce2ac91c9c336",
            "0x00000000000000000000000087350ccfe163cbd6172c6ff3d39dbc93b01f9f46"
          ],
          "data": "0x",
          "blockHash": "0x0f926e0e54829bd4958f6476e232af19aa4e7435cd90e9fb84f9238ef3d06ff9",
          "blockNumber": "0x23214d9",
          "blockTimestamp": "0x693b055e",
          "transactionHash": "0xaf763a45405f8f5a60a6aac50256db858dc7ae7b4e3656ce1a46905c66df7d3e",
          "transactionIndex": "0x2",
          "logIndex": "0x1",
          "removed": false
        }
      ],
      "logsBloom": "0x00000004000000000000000000000000000000000000000000000000000000010000000000000400000000000000000000000000000000000000000000000000000000000000010000000000000000000000000000000000000000000000000000000100020001000000000000000800000000000000000000000000000000000000000000000000000000000000000000000080000000000080000000000000000000000000000000000000000000000000000800000000001000000000000000000000000000000000000000000000000000000000000100000000000020000000000000000000000000000000000000000000080000000000000000000000",
      "type": "0x2",
      "transactionHash": "0xaf763a45405f8f5a60a6aac50256db858dc7ae7b4e3656ce1a46905c66df7d3e",
      "transactionIndex": "0x2",
      "blockHash": "0x0f926e0e54829bd4958f6476e232af19aa4e7435cd90e9fb84f9238ef3d06ff9",
      "blockNumber": "0x23214d9",
      "gasUsed": "0x19e5b",
      "effectiveGasPrice": "0xf433a",
      "blobGasUsed": "0x9c40",
      "from": "0x87350ccfe163cbd6172c6ff3d39dbc93b01f9f46",
      "to": "0xd22302849a87d5b00f13e504581bc086300da080",
      "contractAddress": null,
      "daFootprintGasScalar": "0x190",
      "l1BaseFeeScalar": "0x1db0",
      "l1BlobBaseFee": "0x1",
      "l1BlobBaseFeeScalar": "0xd2730",
      "l1Fee": "0xcf",
      "l1GasPrice": "0xa",
      "l1GasUsed": "0x640"
    }
  ],
  "libraries": [],
  "pending": [],
  "returns": {},
  "timestamp": 1765475676731,
  "chain": 11155420,
  "commit": "8b570dad"
}